:020000040800F2
:1000000000500020614900084347000849470008A4
:100010004F470008554700085B47000800000000F4
:100020000000000000000000000000006147000820
:100030006D47000800000000794700088547000868
:10004000A9490008A9490008A9490008A9490008C8
:10005000A9490008A9490008A9490008A9490008B8
:10006000A9490008A9490008A9490008A9490008A8
:10007000A9490008A9490008A9490008A949000898
:10008000A9490008A9490008A9490008A949000888
:10009000A9490008A9490008A9490008A949000878
:1000A000A9490008A9490008A9490008A949000868
:1000B000A9490008A949000891470008A949000872
:1000C000A9490008A9490008A9490008A949000848
:1000D000A9490008A9490008A9490008A949000838
:1000E000A9490008A9490008A94900080000000022
:1000F0000000000000000000000000000000000000
:0C01000000000000000000005FF808F1A3
:1001100010B5054C237833B9044B13B10448AFF341
:1001200000800123237010BD0C000020000000009F
:10013000204A000808B5034B1BB103490348AFF33D
:10014000008008BD0000000010000020204A0008C8
:1001500081F0004102E000BF83F0004330B54FEA78
:1001600041044FEA430594EA050F08BF90EA020FE5
:100170001FBF54EA000C55EA020C7FEA645C7FEA78
:10018000655C00F0E2804FEA5454D4EB5555B8BF9B
:100190006D420CDD2C4480EA020281EA030382EA0C
:1001A000000083EA010180EA020281EA0303362D9E
:1001B00088BF30BD11F0004F4FEA01314FF4801C71
:1001C0004CEA113102D0404261EB410113F0004F83
:1001D0004FEA03334CEA133302D0524263EB43033A
:1001E00094EA050F00F0A780A4F10104D5F1200ED8
:1001F0000DDB02FA0EFC22FA05F2801841F1000133
:1002000003FA0EF2801843FA05F359410EE0A5F106
:1002100020050EF1200E012A03FA0EFC28BF4CF037
:10022000020C43FA05F3C01851EBE37101F00045ED
:1002300007D54FF0000EDCF1000C7EEB00006EEBFA
:100240000101B1F5801F1BD3B1F5001F0CD3490884
:100250005FEA30004FEA3C0C04F101044FEA4452DB
:1002600012F5800F80F09A80BCF1004F08BF5FEA62
:10027000500C50F1000041EB045141EA050130BD42
:100280005FEA4C0C404141EB0101013C28BFB1F554
:10029000801FE9D291F0000F04BF01460020B1FA9F
:1002A00081F308BF2033A3F10B03B3F120020CDA72
:1002B0000C3208DD02F1140CC2F10C0201FA0CF050
:1002C00021FA02F10CE002F11402D8BFC2F1200CB5
:1002D00001FA02F120FA0CFCDCBF41EA0C0190406B
:1002E000E41AA2BF01EB0451294330BD6FEA0404B4
:1002F0001F3C1CDA0C340EDC04F11404C4F120029F
:1003000020FA04F001FA02F340EA030021FA04F3B0
:1003100045EA030130BDC4F10C04C4F1200220FA07
:1003200002F001FA04F340EA0300294630BD21FA45
:1003300004F0294630BD94F0000F83F4801306BF0B
:1003400081F480110134013D4EE77FEA645C18BFFF
:100350007FEA655C29D094EA050F08BF90EA020F96
:1003600005D054EA000C04BF1946104630BD91EA8E
:10037000030F1EBF0021002030BD5FEA545C05D191
:100380004000494128BF41F0004130BD14F58004D0
:100390003CBF01F5801130BD01F0004545F0FE4144
:1003A00041F470014FF0000030BD7FEA645C1ABF79
:1003B000194610467FEA655C1CBF0B46024650EAB0
:1003C000013406BF52EA033591EA030F41F40021DC
:1003D00030BD00BF90F0000F04BF0021704730B562
:1003E0004FF4806404F132044FF000054FF0000137
:1003F00050E700BF90F0000F04BF0021704730B5F8
:100400004FF4806404F1320410F0004548BF4042CC
:100410004FF000013EE700BF42004FEAE2014FEA21
:1004200031014FEA02701FBF12F07F4393F07F4FFC
:1004300081F06051704732F07F4208BF704793F0FF
:100440007F4F04BF41F40021704730B54FF4607412
:1004500001F0004521F000411CE700BF50EA010215
:1004600008BF704730B54FF000050AE050EA0102BE
:1004700008BF704730B511F0004502D5404261EB2E
:1004800041014FF4806404F132045FEA915C3FF46F
:10049000D8AE4FF003025FEADC0C18BF03325FEA0C
:1004A000DC0C18BF033202EBDC02C2F1200300FABD
:1004B00003FC20FA02F001FA03FE40EA0E0021FAE2
:1004C00002F11444BDE600BF70B54FF0FF0C4CF4D0
:1004D000E06C1CEA11541DBF1CEA135594EA0C0F82
:1004E00095EA0C0F00F0DEF82C4481EA030621EABD
:1004F0004C5123EA4C5350EA013518BF52EA0335F8
:1005000041F4801143F4801338D0A0FB02CE4FF0A9
:100510000005E1FB02E506F00042E0FB03E54FF0D9
:100520000006E1FB03569CF0000F18BF4EF0010ED1
:10053000A4F1FF04B6F5007F64F5407404D25FEACD
:100540004E0E6D4146EB060642EAC62141EA555180
:100550004FEAC52040EA5E504FEACE2EB4F1FD0CC2
:1005600088BFBCF5E06F1ED8BEF1004F08BF5FEA40
:10057000500E50F1000041EB045170BD06F00046F2
:1005800046EA010140EA020081EA0301B4EB5C049F
:10059000C2BFD4EB0C0541EA045170BD41F4801197
:1005A0004FF0000E013C00F3AB8014F1360FDEBFBC
:1005B000002001F0004170BDC4F10004203C35DA98
:1005C0000C341BDC04F11404C4F1200500FA05F31B
:1005D00020FA04F001FA05F240EA020001F00042BC
:1005E00021F0004110EBD37021FA04F642EB060132
:1005F0005EEA430E08BF20EAD37070BDC4F10C045C
:10060000C4F1200500FA04F320FA05F001FA04F21F
:1006100040EA020001F0004110EBD37041F100010B
:100620005EEA430E08BF20EAD37070BDC4F1200516
:1006300000FA05F24EEA020E20FA04F301FA05F27E
:1006400043EA020321FA04F001F0004121FA04F226
:1006500020EA020000EBD3705EEA430E08BF20EAF6
:10066000D37070BD94F0000F0FD101F00046400030
:1006700041EB010111F4801F08BF013CF7D041EAB2
:10068000060195F0000F18BF704703F000465200B6
:1006900043EB030313F4801F08BF013DF7D043EA87
:1006A0000603704794EA0C0F0CEA135518BF95EA3D
:1006B0000C0F0CD050EA410618BF52EA4306D1D1C4
:1006C00081EA030101F000414FF0000070BD50EAE3
:1006D000410606BF1046194652EA430619D094EA6D
:1006E0000C0F02D150EA013613D195EA0C0F05D157
:1006F00052EA03361CBF104619460AD181EA0301AB
:1007000001F0004141F0FE4141F470014FF0000062
:1007100070BD41F0FE4141F4780170BD70B54FF0FD
:10072000FF0C4CF4E06C1CEA11541DBF1CEA13557D
:1007300094EA0C0F95EA0C0F00F0A7F8A4EB05045F
:1007400081EA030E52EA03354FEA013100F0888056
:100750004FEA03334FF0805545EA131343EA12631F
:100760004FEA022245EA111545EA10654FEA0026D4
:100770000EF000419D4208BF964244F1FD0404F58D
:10078000407402D25B084FEA3202B61A65EB0305E9
:100790005B084FEA32024FF480104FF4002CB6EBA6
:1007A000020E75EB030E22BFB61A754640EA0C0026
:1007B0005B084FEA3202B6EB020E75EB030E22BF66
:1007C000B61A754640EA5C005B084FEA3202B6EBA7
:1007D000020E75EB030E22BFB61A754640EA9C0066
:1007E0005B084FEA3202B6EB020E75EB030E22BF36
:1007F000B61A754640EADC0055EA060E18D04FEAF4
:10080000051545EA16754FEA06164FEAC30343EA93
:1008100052734FEAC2025FEA1C1CC0D111F4801F60
:100820000BD141EA00014FF000004FF0004CB6E759
:1008300011F4801F04BF01430020B4F1FD0C88BFF8
:10084000BCF5E06F3FF6AFAEB5EB030C04BFB6EB03
:10085000020C5FEA500C50F1000041EB045170BDF6
:100860000EF0004E4EEA113114EB5C04C2BFD4EB23
:100870000C0541EA045170BD41F480114FF0000EA7
:10088000013C90E645EA060E8DE60CEA135594EA23
:100890000C0F08BF95EA0C0F3FF43BAF94EA0C0F26
:1008A0000AD150EA01347FF434AF95EA0C0F7FF49B
:1008B00025AF104619462CE795EA0C0F06D152EAEF
:1008C00003353FF4FDAE1046194622E750EA4106D3
:1008D00018BF52EA43067FF4C5AE50EA41047FF4E4
:1008E0000DAF52EA43057FF4EBAE12E74FEA410247
:1008F000B2F1E04324BFB3F5001CDCF1FE5C0DD97E
:1009000001F0004C4FEAC0024CEA5070B2F1004FC7
:1009100040EB830008BF20F00100704711F0804FCA
:1009200021D113F13872BCBF01F00040704741F48F
:1009300080114FEA5252C2F11802C2F1200C10FA93
:100940000CF320FA02F018BF40F001004FEAC12377
:100950004FEAD32303FA0CFC40EA0C0023FA02F31B
:100960004FEA4303CCE77FEA625307D150EA0133F1
:100970001EBF4FF0FE4040F44000704701F00040C1
:1009800040F0FE4040F40000704700BF80F000409F
:1009900002E000BF81F0004142001FBF5FEA410357
:1009A00092EA030F7FEA226C7FEA236C6AD04FEA57
:1009B0001262D2EB1363C1BFD2184140484041409C
:1009C000B8BF5B42192B88BF704710F0004F40F44E
:1009D000000020F07F4018BF404211F0004F41F46A
:1009E000000121F07F4118BF494292EA030F3FD036
:1009F000A2F1010241FA03FC10EB0C00C3F1200349
:100A000001FA03F100F0004302D5494260EB4000D7
:100A1000B0F5000F13D3B0F1807F06D340084FEA42
:100A2000310102F10102FE2A51D2B1F1004F40EB37
:100A3000C25008BF20F0010040EA0300704749009F
:100A400040EB0000013A28BFB0F5000FEDD2B0FA3C
:100A500080FCACF1080CB2EB0C0200FA0CF0AABF5F
:100A600000EBC25052421843BCBFD04018437047FD
:100A700092F0000F81F4000106BF80F40000013203
:100A8000013BB5E74FEA41037FEA226C18BF7FEADA
:100A9000236C21D092EA030F04D092F0000F08BF1C
:100AA0000846704790EA010F1CBF0020704712F003
:100AB0007F4F04D1400028BF40F00040704712F142
:100AC00000723CBF00F50000704700F0004343F0A7
:100AD000FE4040F4000070477FEA226216BF0846DD
:100AE0007FEA23630146420206BF5FEA412390EAA0
:100AF000010F40F4800070474FF0000304E000BF96
:100B000010F0004348BF40425FEA000C08BF704746
:100B100043F0964301464FF000001CE050EA01020A
:100B200008BF70474FF000030AE000BF50EA01021F
:100B300008BF704711F0004302D5404261EB41010C
:100B40005FEA010C02BF84460146002043F0B64331
:100B500008BFA3F18053A3F50003BCFA8CF2083A56
:100B6000A3EBC25310DB01FA02FC634400FA02FC5F
:100B7000C2F12002BCF1004F20FA02F243EB020066
:100B800008BF20F00100704702F1200201FA02FCC8
:100B9000C2F1200250EA4C0021FA02F243EB0200BB
:100BA00008BF20EADC7070474FF0FF0C1CEAD052FF
:100BB0001EBF1CEAD15392EA0C0F93EA0C0F6FD0C0
:100BC0001A4480EA010C400218BF5FEA41211ED09E
:100BD0004FF0006343EA501043EA5111A0FB01318A
:100BE0000CF00040B1F5000F3EBF490041EAD3715F
:100BF0005B0040EA010062F17F02FD2A1DD8B3F1DB
:100C0000004F40EBC25008BF20F00100704790F049
:100C1000000F0CF0004C08BF49024CEA502040EA9B
:100C200051207F3AC2BFD2F1FF0340EAC250704761
:100C300040F400004FF00003013A5DDC12F1190F9F
:100C4000DCBF00F000407047C2F10002410021FA11
:100C500002F1C2F1200200FA02FC5FEA310040F129
:100C6000000053EA4C0308BF20EADC70704792F0A2
:100C7000000F00F0004C02BF400010F4000F013ADA
:100C8000F9D040EA0C0093F0000F01F0004C02BFD5
:100C9000490011F4000F013BF9D041EA0C018FE744
:100CA0000CEAD15392EA0C0F18BF93EA0C0F0AD04A
:100CB00030F0004C18BF31F0004CD8D180EA010070
:100CC00000F00040704790F0000F17BF90F0004F09
:100CD000084691F0000F91F0004F14D092EA0C0FEB
:100CE00001D142020FD193EA0C0F03D14B0218BF7E
:100CF000084608D180EA010000F0004040F0FE40C4
:100D000040F40000704740F0FE4040F4400070475F
:100D10004FF0FF0C1CEAD0521EBF1CEAD15392EADE
:100D20000C0F93EA0C0F69D0A2EB030280EA010CCE
:100D300049024FEA402037D04FF0805343EA111167
:100D400043EA10130CF000408B4238BF5B0042F1C5
:100D50007D024FF4000C8B4224BF5B1A40EA0C006A
:100D6000B3EB510F24BFA3EB510340EA5C00B3EB9C
:100D7000910F24BFA3EB910340EA9C00B3EBD10F8A
:100D800024BFA3EBD10340EADC001B0118BF5FEADC
:100D90001C1CE0D1FD2A3FF650AF8B4240EBC25005
:100DA00008BF20F0010070470CF0004C4CEA5020C6
:100DB0007F32C2BFD2F1FF0340EAC250704740F415
:100DC00000004FF00003013A37E792F0000F00F007
:100DD000004C02BF400010F4000F013AF9D040EA85
:100DE0000C0093F0000F01F0004C02BF490011F419
:100DF000000F013BF9D041EA0C0195E70CEAD15311
:100E000092EA0C0F08D142027FF47DAF93EA0C0FF7
:100E10007FF470AF084676E793EA0C0F04D14B02DB
:100E20003FF44CAF08466EE730F0004C18BF31F08D
:100E3000004CCAD130F000427FF45CAF31F0004387
:100E40007FF43CAF5FE700BF4FF0FF3C06E000BF20
:100E50004FF0010C02E000BF4FF0010C4DF804CD43
:100E60004FEA40024FEA41037FEA226C18BF7FEA53
:100E7000236C11D001B052EA530C18BF90EA010F55
:100E800058BFB2EB030088BFC81738BF6FEAE170E4
:100E900018BF40F0010070477FEA226C02D15FEA80
:100EA000402C05D17FEA236CE4D15FEA412CE1D0EC
:100EB0005DF8040B704700BF844608466146FFE7B3
:100EC0000FB5FFF7C9FF002848BF10F1000F0FBD95
:100ED0004DF808EDFFF7F4FF0CBF012000205DF88E
:100EE00008FB00BF4DF808EDFFF7EAFF34BF012013
:100EF00000205DF808FB00BF4DF808EDFFF7E0FFAC
:100F000094BF012000205DF808FB00BF4DF808EDFC
:100F1000FFF7D2FF94BF012000205DF808FB00BF5F
:100F20004DF808EDFFF7C8FF34BF012000205DF841
:100F300008FB00BF42000ED2B2F1FE4F0BD34FF0C0
:100F40009E03B3EB126209D44FEA002343F000433F
:100F500023FA02F070474FF00000704712F1610F62
:100F600001D1420202D14FF0FF3070474FF0000034
:100F7000704700BF80B582B000AF78607B68002BFF
:100F800001D1012341E07B6893F83D30DBB2002BB7
:100F900006D17B68002283F83C20786803F072FC5D
:100FA0007B68022283F83D207B681A687B680433E3
:100FB0001946104600F028FC7B68012283F8462081
:100FC0007B68012283F83E207B68012283F83F2062
:100FD0007B68012283F840207B68012283F841204E
:100FE0007B68012283F842207B68012283F843203A
:100FF0007B68012283F844207B68012283F8452026
:101000007B68012283F83D20002318460837BD463F
:1010100080BD000080B485B000AF78607B6893F835
:101020003D30DBB2012B01D001233AE07B68022284
:1010300083F83D207B681B68DA687B681B6842F098
:101040000102DA607B681B68184A93420ED07B6805
:101050001B68B3F1804F09D07B681B68144A934228
:1010600004D07B681B68134A934211D17B681B68CC
:101070009B6803F00703FB60FB68062B10D07B68BE
:101080001B681A687B681B6842F001021A6007E05F
:101090007B681B681A687B681B6842F001021A6053
:1010A000002318461437BD4680BC7047002C014011
:1010B000000400400008004080B582B000AF7860B6
:1010C0007B68002B01D1012341E07B6893F83D3020
:1010D000DBB2002B06D17B68002283F83C207868C5
:1010E00000F039F87B68022283F83D207B681A689B
:1010F0007B6804331946104600F086FB7B680122AA
:1011000083F846207B68012283F83E207B68012219
:1011100083F83F207B68012283F840207B6801220E
:1011200083F841207B68012283F842207B680122FA
:1011300083F843207B68012283F844207B680122E6
:1011400083F845207B68012283F83D200023184660
:101150000837BD4680BD80B483B000AF786000BF63
:101160000C37BD4680BC704780B584B000AF786056
:1011700039603B68002B09D17B6893F83E30DBB2C5
:10118000012B14BF01230023DBB222E03B68042BB8
:1011900009D17B6893F83F30DBB2012B14BF0123E8
:1011A0000023DBB215E03B68082B09D17B6893F87C
:1011B0004030DBB2012B14BF01230023DBB208E077
:1011C0007B6893F84130DBB2012B14BF012300236D
:1011D000DBB2002B01D001235EE03B68002B04D181
:1011E0007B68022283F83E2013E03B68042B04D185
:1011F0007B68022283F83F200BE03B68082B04D178
:101200007B68022283F8402003E07B68022283F897
:1012100041207B681B6801223968184600F074FD84
:101220007B681B681E4A934207D17B681B685A6C17
:101230007B681B6842F400425A647B681B68184A4A
:1012400093420ED07B681B68B3F1804F09D07B6856
:101250001B68144A934204D07B681B68124A93426D
:1012600011D17B681B689B6803F00703FB60FB6878
:10127000062B10D07B681B681A687B681B6842F0DD
:1012800001021A6007E07B681B681A687B681B68AC
:1012900042F001021A60002318461037BD4680BD97
:1012A000002C0140000400400008004080B582B0DE
:1012B00000AF78607B681B681B6903F00203022B98
:1012C00022D17B681B68DB6803F00203022B1BD171
:1012D0007B681B686FF002021A617B6801221A7733
:1012E0007B681B689B6903F00303002B03D07868BD
:1012F00000F06FFA05E0786800F062FA786800F0B4
:1013000071FA7B6800221A777B681B681B6903F0FF
:101310000403042B22D17B681B68DB6803F0040301
:10132000042B1BD17B681B686FF004021A617B6879
:1013300002221A777B681B689B6903F44073002BB9
:1013400003D0786800F045FA05E0786800F038FAD4
:10135000786800F047FA7B6800221A777B681B6880
:101360001B6903F00803082B22D17B681B68DB682C
:1013700003F00803082B1BD17B681B686FF0080281
:101380001A617B6804221A777B681B68DB6903F0AB
:101390000303002B03D0786800F01BFA05E078689F
:1013A00000F00EFA786800F01DFA7B6800221A77C8
:1013B0007B681B681B6903F01003102B22D17B682C
:1013C0001B68DB6803F01003102B1BD17B681B68C4
:1013D0006FF010021A617B6808221A777B681B681D
:1013E000DB6903F44073002B03D0786800F0F1F957
:1013F00005E0786800F0E4F9786800F0F3F97B68BC
:1014000000221A777B681B681B6903F00103012B1C
:101410000ED17B681B68DB6803F00103012B07D149
:101420007B681B686FF001021A61786802F016FD94
:101430007B681B681B6903F08003802B0ED17B68DF
:101440001B68DB6803F08003802B07D17B681B6877
:101450006FF080021A61786800F0E1FC7B681B681D
:101460001B6903F04003402B0ED17B681B68DB68CF
:1014700003F04003402B07D17B681B686FF04002EC
:101480001A61786800F0B7F97B681B681B6903F084
:101490002003202B0ED17B681B68DB6803F0200340
:1014A000202B07D17B681B686FF020021A617868D7
:1014B00000F0ACFC00BF0837BD4680BD80B584B0ED
:1014C00000AFF860B9607A60FB6893F83C30012B9C
:1014D00001D10223ACE0FB68012283F83C207B6849
:1014E0000C2B00F29F8001A252F823F02115000876
:1014F00025160008251600082516000861150008A5
:10150000251600082516000825160008A315000852
:10151000251600082516000825160008E315000802
:10152000FB681B68B968184600F0D0F9FB681B68B7
:101530009A69FB681B6842F008029A61FB681B68A5
:101540009A69FB681B6822F004029A61FB681B68B9
:101550009969BB681A69FB681B680A439A6162E073
:10156000FB681B68B968184600F016FAFB681B6830
:101570009A69FB681B6842F400629A61FB681B6809
:101580009A69FB681B6822F480629A61FB681B6899
:101590009969BB681B691A02FB681B680A439A6158
:1015A00041E0FB681B68B968184600F05FFAFB6809
:1015B0001B68DA69FB681B6842F00802DA61FB68A5
:1015C0001B68DA69FB681B6822F00402DA61FB68B9
:1015D0001B68D969BB681A69FB681B680A43DA6132
:1015E00021E0FB681B68B968184600F0A9FAFB689F
:1015F0001B68DA69FB681B6842F40062DA61FB6809
:101600001B68DA69FB681B6822F48062DA61FB6898
:101610001B68D969BB681B691A02FB681B680A430F
:10162000DA6100E000BFFB68002283F83C20002361
:1016300018461037BD4680BD80B584B000AF7860D5
:1016400039607B6893F83C30012B01D10223B3E071
:101650007B68012283F83C207B68022283F83D20CE
:101660007B681B689B68FB60FB6823F07703FB606B
:10167000FB6823F47F43FB607B681B68FA689A6011
:101680003B681B68B3F5005F3ED0B3F5005F00F226
:101690008780B3F5805F00F08580B3F5805F7FD8E9
:1016A000702B1AD0702B7BD8602B50D0602B77D842
:1016B000502B3CD0502B73D8402B58D0402B6FD898
:1016C000302B64D0302B6BD8202B60D0202B67D8E8
:1016D000002B5CD0102B5AD062E07B6818683B6806
:1016E00099683B685A683B68DB6800F0EEFA7B68F3
:1016F0001B689B68FB60FB6843F07703FB607B68BB
:101700001B68FA689A604EE07B6818683B689968C5
:101710003B685A683B68DB6800F0D7FA7B681B6857
:101720009A687B681B6842F480429A603BE07B6861
:1017300018683B6859683B68DB681A4600F04EFA47
:101740007B681B685021184600F0A5FA2BE07B68E7
:1017500018683B6859683B68DB681A4600F06CFA09
:101760007B681B686021184600F095FA1BE07B68D7
:1017700018683B6859683B68DB681A4600F02EFA27
:101780007B681B684021184600F085FA0BE07B68F7
:101790001A683B681B681946104600F07CFA02E0A4
:1017A00000BF00E000BF7B68012283F83D207B681A
:1017B000002283F83C20002318461037BD4680BD28
:1017C00080B483B000AF786000BF0C37BD4680BCEA
:1017D000704780B483B000AF786000BF0C37BD465F
:1017E00080BC704780B483B000AF786000BF0C3716
:1017F000BD4680BC704780B483B000AF786000BF46
:101800000C37BD4680BC704780B485B000AF7860AF
:1018100039607B681B68FB607B68294A93420BD068
:101820007B68B3F1804F07D07B68264A934203D090
:101830007B68254A934208D1FB6823F07003FB6064
:101840003B685B68FA681343FB607B681C4A934201
:101850000BD07B68B3F1804F07D07B68194A934265
:1018600003D07B68184A934208D1FB6823F4407385
:10187000FB603B68DB68FA681343FB60FB6823F09E
:1018800080023B685B691343FB607B68FA681A60FF
:101890003B689A687B68DA623B681A687B689A6280
:1018A0007B68074A934203D13B681A697B681A63D5
:1018B0007B6801225A6100BF1437BD4680BC704767
:1018C000002C0140000400400008004080B487B0B4
:1018D00000AF786039607B681B6A23F001027B6887
:1018E0001A627B681B6A7B617B685B683B617B6813
:1018F0009B69FB60FB6823F07003FB60FB6823F0CF
:101900000303FB603B681B68FA681343FB607B6959
:1019100023F002037B613B689B687A6913437B6118
:101920007B681C4A93420CD17B6923F008037B61DE
:101930003B68DB687A6913437B617B6923F00403AE
:101940007B617B68134A934211D13B6923F4807316
:101950003B613B6923F400733B613B685B693A6917
:1019600013433B613B689B693A6913433B617B6866
:101970003A695A607B68FA689A613B685A687B6882
:101980005A637B687A691A6200BF1C37BD4680BC07
:10199000704700BF002C014080B487B000AF786072
:1019A00039607B681B6A23F010027B681A627B68CF
:1019B0001B6A7B617B685B683B617B689B69FB6042
:1019C000FB6823F4E043FB60FB6823F44073FB6097
:1019D0003B681B681B02FA681343FB607B6923F0BA
:1019E00020037B613B689B681B017A6913437B6121
:1019F0007B681D4A93420DD17B6923F080037B6194
:101A00003B68DB681B017A6913437B617B6923F0C8
:101A100040037B617B68144A934213D13B6923F4F2
:101A200080633B613B6923F400633B613B685B6916
:101A30009B003A6913433B613B689B699B003A6991
:101A400013433B617B683A695A607B68FA689A6124
:101A50003B685A687B689A637B687A691A6200BF40
:101A60001C37BD4680BC7047002C014080B487B055
:101A700000AF786039607B681B6A23F480727B68F2
:101A80001A627B681B6A7B617B685B683B617B6871
:101A9000DB69FB60FB6823F07003FB60FB6823F0ED
:101AA0000303FB603B681B68FA681343FB607B69B8
:101AB00023F400737B613B689B681B027A691343C4
:101AC0007B617B681D4A93420DD17B6923F40063DF
:101AD0007B613B68DB681B027A6913437B617B692E
:101AE00023F480637B617B68144A934213D13B6982
:101AF00023F480533B613B6923F400533B613B6813
:101B00005B691B013A6913433B613B689B691B019D
:101B10003A6913433B617B683A695A607B68FA68AB
:101B2000DA613B685A687B68DA637B687A691A62B3
:101B300000BF1C37BD4680BC704700BF002C014071
:101B400080B487B000AF786039607B681B6A23F48B
:101B500080527B681A627B681B6A3B617B685B68AA
:101B60007B617B68DB69FB60FB6823F4E043FB601F
:101B7000FB6823F44073FB603B681B681B02FA6838
:101B80001343FB603B6923F400533B613B689B6854
:101B90001B033A6913433B617B680F4A934209D1A7
:101BA0007B6923F480437B613B685B699B017A69B5
:101BB00013437B617B687A695A607B68FA68DA61F3
:101BC0003B685A687B681A647B683A691A6200BF8E
:101BD0001C37BD4680BC7047002C014080B487B0E4
:101BE00000AFF860B9607A60FB681B6A7B61FB68D4
:101BF0001B6A23F00102FB681A62FB689B693B6168
:101C00003B6923F0F0033B617B681B013A69134396
:101C10003B617B6923F00A037B617A69BB681343EC
:101C20007B61FB683A699A61FB687A691A6200BF56
:101C30001C37BD4680BC704780B487B000AFF860E9
:101C4000B9607A60FB681B6A23F01002FB681A62B5
:101C5000FB689B697B61FB681B6A3B617B6923F4C2
:101C600070437B617B681B037A6913437B613B692B
:101C700023F0A0033B61BB681B013A6913433B613E
:101C8000FB687A699A61FB683A691A6200BF1C377F
:101C9000BD4680BC704780B485B000AF78603960C5
:101CA0007B689B68FB60FB6823F07003FB603A680D
:101CB000FB68134343F00703FB607B68FA689A6094
:101CC00000BF1437BD4680BC704780B487B000AFFA
:101CD000F860B9607A603B60FB689B687B617B69F8
:101CE00023F47F437B613B681A027B681A43BB681D
:101CF00013437A6913437B61FB687A699A6000BF7A
:101D00001C37BD4680BC704780B487B000AFF86018
:101D1000B9607A60BB6803F01F03012202FA03F383
:101D20007B61FB681A6A7B69DB431A40FB681A62B5
:101D3000FB681A6ABB6803F01F03796801FA03F3B2
:101D40001A43FB681A6200BF1C37BD4680BC70474F
:101D500080B485B000AF786039607B6893F83C3020
:101D6000012B01D1022346E07B68012283F83C204D
:101D70007B68022283F83D207B681B685B68FB6000
:101D80007B681B689B68BB60FB6823F07003FB608B
:101D90003B681B68FA681343FB607B681B68FA6842
:101DA0005A607B681B68164A93420ED07B681B689A
:101DB000B3F1804F09D07B681B68124A934204D06C
:101DC0007B681B68104A93420CD1BB6823F08003E8
:101DD000BB603B685B68BA681343BB607B681B6889
:101DE000BA689A607B68012283F83D207B680022F4
:101DF00083F83C20002318461437BD4680BC70474A
:101E0000002C0140000400400008004080B483B072
:101E100000AF786000BF0C37BD4680BC704780B40F
:101E200083B000AF786000BF0C37BD4680BC704700
:101E300080B500AF084B1B68074A43F010031360DE
:101E4000032000F0E9FE002000F008F802F0AAFCF0
:101E50000023184680BD00BF0020024080B582B03C
:101E600000AF7860124B1A68124B1B7819464FF47A
:101E70007A73B3FBF1F3B2FBF3F3184600F001FF02
:101E80000346002B01D001230EE07B680F2B0AD8FC
:101E9000002279684FF0FF3000F0C9FE064A7B68E7
:101EA0001360002300E0012318460837BD4680BDBB
:101EB00008000020040000200000002080B400AFD3
:101EC000054B1B781A46054B1B681344034A1360E5
:101ED00000BFBD4680BC70470400002028000020E1
:101EE00080B400AF024B1B681846BD4680BC7047EB
:101EF0002800002080B584B000AF7860FFF7F0FFC5
:101F0000B8607B68FB60FB68B3F1FF3F05D00A4B0C
:101F10001B781A46FB681344FB6000BFFFF7E0FF25
:101F20000246BB68D31AFA689A42F7D800BF00BFCE
:101F30001037BD4680BD00BF0400002080B586B0CC
:101F400000AF78607B68002B01D1012372E27B68CF
:101F50001B6803F00103002B00F08780924B5B6845
:101F600003F00C03042B0CD08F4B5B6803F00C03C5
:101F7000082B12D18C4B5B6803F48033B3F5803FA0
:101F80000BD1894B1B6803F40033002B6CD07B68AA
:101F90005B68002B68D101234CE27B685B68B3F57A
:101FA000803F06D1804B1B687F4A43F48033136027
:101FB0002EE07B685B68002B0CD17B4B1B687A4A58
:101FC00023F480331360784B1B68774A23F4802313
:101FD00013601DE07B685B68B3F5A02F0CD1724BDA
:101FE0001B68714A43F4802313606F4B1B686E4A71
:101FF00043F4803313600BE06B4B1B686A4A23F495
:1020000080331360684B1B68674A23F48023136096
:102010007B685B68002B13D0FFF762FF386108E034
:10202000FFF75EFF02463B69D31A642B01D90323F5
:1020300000E25D4B1B6803F40033002BF0D014E08A
:10204000FFF74EFF386108E0FFF74AFF02463B69A1
:10205000D31A642B01D90323ECE1534B1B6803F41F
:102060000033002BF0D100E000BF7B681B6803F059
:102070000203002B63D04C4B5B6803F00C03002B76
:102080000BD0494B5B6803F00C03082B1CD1464B6B
:102090005B6803F48033002B16D1434B1B6803F0BD
:1020A0000203002B05D07B681B69012B01D00123A3
:1020B000C0E13D4B1B6823F0F8027B685B69DB00E5
:1020C000394913430B603AE07B681B69002B20D031
:1020D000364B01221A60FFF703FF386108E0FFF773
:1020E000FFFE02463B69D31A022B01D90323A1E16B
:1020F0002D4B1B6803F00203002BF0D02A4B1B680A
:1021000023F0F8027B685B69DB00274913430B600F
:1021100015E0264B00221A60FFF7E2FE386108E066
:10212000FFF7DEFE02463B69D31A022B01D90323D7
:1021300080E11D4B1B6803F00203002BF0D17B688C
:102140001B6803F00803002B3AD07B689B69002BC7
:1021500019D0174B01221A60FFF7C2FE386108E060
:10216000FFF7BEFE02463B69D31A022B01D90323B7
:1021700060E10D4B5B6A03F00203002BF0D00120FD
:1021800000F0C4FA1CE00A4B00221A60FFF7A8FE18
:1021900038610FE0FFF7A4FE02463B69D31A022B19
:1021A00008D9032346E100BF00100240000042426C
:1021B00080044242924B5B6A03F00203002BE9D198
:1021C0007B681B6803F00403002B00F0A68000234B
:1021D000FB758B4BDB6903F08053002B0DD1884BD3
:1021E000DB69874A43F08053D361854BDB6903F099
:1021F0008053BB60BB680123FB75824B1B6803F4F3
:102200008073002B18D17F4B1B687E4A43F4807388
:102210001360FFF765FE386108E0FFF761FE0246D4
:102220003B69D31A642B01D9032303E1754B1B6867
:1022300003F48073002BF0D07B68DB68012B06D1A0
:102240006F4B1B6A6E4A43F0010313622DE07B68FB
:10225000DB68002B0CD16A4B1B6A694A23F001032F
:102260001362674B1B6A664A23F0040313621CE087
:102270007B68DB68052B0CD1614B1B6A604A43F01D
:10228000040313625E4B1B6A5D4A43F00103136251
:102290000BE05B4B1B6A5A4A23F001031362584B55
:1022A0001B6A574A23F0040313627B68DB68002B28
:1022B00015D0FFF715FE38610AE0FFF711FE024660
:1022C0003B69D31A41F28832934201D90323B1E02A
:1022D0004B4B1B6A03F00203002BEED014E0FFF718
:1022E000FFFD38610AE0FFF7FBFD02463B69D31AA8
:1022F00041F28832934201D903239BE0404B1B6A91
:1023000003F00203002BEED1FB7D012B05D13C4BEA
:10231000DB693B4A23F08053D3617B68DB69002B88
:1023200000F08780364B5B6803F00C03082B61D00C
:102330007B68DB69022B46D1334B00221A60FFF722
:10234000CFFD386108E0FFF7CBFD02463B69D31AA9
:10235000022B01D903236DE0294B1B6803F00073A6
:10236000002BF0D17B681B6AB3F5803F08D1244B6A
:102370005B6823F400327B689B68214913434B6000
:102380001F4B5B6823F474127B68196A7B685B6A75
:102390000B431B4913434B601B4B01221A60FFF791
:1023A0009FFD386108E0FFF79BFD02463B69D31AA9
:1023B000022B01D903233DE0114B1B6803F000738E
:1023C000002BF0D035E0104B00221A60FFF788FD9B
:1023D000386108E0FFF784FD02463B69D31A022BFF
:1023E00001D9032326E0064B1B6803F00073002B82
:1023F000F0D11EE07B68DB69012B07D1012319E0D6
:102400000010024000700040600042420B4B5B68CD
:10241000FB60FB6803F480327B681B6A9A4206D13A
:10242000FB6803F470127B685B6A9A4201D0012357
:1024300000E0002318461837BD4680BD001002405A
:1024400080B584B000AF786039607B68002B01D123
:102450000123D0E06A4B1B6803F007033A689A42F5
:1024600010D9674B1B6823F0070265493B6813438B
:102470000B60634B1B6803F007033A689A4201D074
:102480000123B8E07B681B6803F00203002B20D017
:102490007B681B6803F00403002B05D0594B5B6875
:1024A000584A43F4E06353607B681B6803F00803F9
:1024B000002B05D0534B5B68524A43F46053536082
:1024C000504B5B6823F0F0027B689B684D491343D7
:1024D0004B607B681B6803F00103002B40D07B68D6
:1024E0005B68012B07D1474B1B6803F40033002BBB
:1024F00015D101237FE07B685B68022B07D1414B3C
:102500001B6803F00073002B09D1012373E03D4BDE
:102510001B6803F00203002B01D101236BE0394B50
:102520005B6823F003027B685B68364913434B60AA
:10253000FFF7D6FCF8600AE0FFF7D2FC0246FB6822
:10254000D31A41F28832934201D9032353E02D4B31
:102550005B6803F00C027B685B689B009A42EBD1DE
:10256000274B1B6803F007033A689A4210D2244BAA
:102570001B6823F0070222493B6813430B60204B82
:102580001B6803F007033A689A4201D0012332E046
:102590007B681B6803F00403002B08D0194B5B68B1
:1025A00023F4E0627B68DB68164913434B607B6869
:1025B0001B6803F00803002B09D0124B5B6823F45F
:1025C00060527B681B69DB000E4913434B6000F0CF
:1025D00021F802460B4B5B681B0903F00F030A4905
:1025E000CB5C22FA03F3094A1360094B1B681846B7
:1025F000FFF734FC002318461037BD4680BD00BFEE
:102600000020024000100240484A00080800002054
:102610000000002090B48AB000AF294B3C1D0FCBC6
:1026200084E80F0040F201233B800023FB6100237C
:10263000BB6100237B6200237B6100233B62214B53
:102640005B68FB61FB6903F00C03042B02D0082BD1
:1026500003D02BE01C4B3B622BE0FB699B0C03F08F
:102660000F0328333B4413F8243C7B61FB6903F4DC
:102670008033002B12D0134B5B685B0C03F001031B
:1026800028333B4413F8283CBB617B690E4A03FBAB
:1026900002F2BB69B2FBF3F37B6204E07B690B4A95
:1026A00002FB03F37B627B6A3B6202E0064B3B6208
:1026B00000BF3B6A18462837BD4690BC704700BF34
:1026C000384A00080010024000127A0000093D005C
:1026D00080B400AF024B1B681846BD4680BC7047F3
:1026E0000800002080B500AFFFF7F2FF0246054B5F
:1026F0005B681B0A03F007030349CB5C22FA03F370
:10270000184680BD00100240584A000880B485B0C9
:1027100000AF78600A4B1B680A4AA2FB03235B0ADE
:102720007A6802FB03F3FB6000BFFB685A1EFA6085
:10273000002BF9D100BF00BF1437BD4680BC7047E5
:1027400008000020D34D621080B48BB000AF7860D9
:10275000396000237B6200233B6269E101227B6ACE
:1027600002FA03F3FB613B681B68FA691340BB6123
:10277000BA69FB699A4240F058813B685B689A4AA3
:1027800093425ED0984A934275D8984A934258D063
:10279000964A93426FD8964A934252D0944A9342B3
:1027A00069D8944A93424CD0924A934263D8924A51
:1027B000934246D0904A93425DD8122B2AD8122BCE
:1027C00059D801A252F823F0432800081D28000818
:1027D0002F280008712800087728000877280008AB
:1027E000772800087728000877280008772800084D
:1027F000772800087728000877280008772800083D
:10280000772800087728000877280008252800087E
:1028100039280008794A934213D02CE03B68DB68E2
:102820003B6229E03B68DB6804333B6224E03B68A1
:10283000DB6808333B621FE03B68DB680C333B62BC
:102840001AE03B689B68002B02D104233B6213E033
:102850003B689B68012B05D108233B627B68FA69C2
:102860001A6109E008233B627B68FA695A6103E058
:1028700000233B6200E000BFBB69FF2B01D87B68EF
:1028800001E07B6804337B61BB69FF2B02D87B6A64
:102890009B0002E07B6A083B9B003B617B691A68F6
:1028A0000F213B6901FA03F3DB431A40396A3B69A4
:1028B00001FA03F31A437B691A603B685B6803F013
:1028C0008053002B00F0B1804D4B9B694C4A43F084
:1028D000010393614A4B9B6903F00103BB60BB6832
:1028E000484A7B6A9B08023352F82330FB607B6ABC
:1028F00003F003039B000F2202FA03F3DB43FA68A1
:102900001340FB607B68404A934213D07B683F4A88
:1029100093420DD07B683E4A934207D07B683D4A84
:10292000934201D1032306E0042304E0022302E0E2
:10293000012300E000237A6A02F003029200934030
:10294000FA681343FB602F497B6A9B080233FA68DD
:1029500041F823203B685B6803F48033002B06D0EA
:102960002D4B1A682C49BB6913430B6006E02A4BB8
:102970001A68BB69DB43284913400B603B685B68FE
:1029800003F40033002B06D0234B5A682249BB695D
:1029900013434B6006E0204B5A68BB69DB431E497A
:1029A00013404B603B685B6803F48013002B06D038
:1029B000194B9A681849BB6913438B6006E0164BA4
:1029C0009A68BB69DB43144913408B603B685B68C2
:1029D00003F40013002B21D00F4BDA680E49BB69BA
:1029E0001343CB6021E000BF000032100000311023
:1029F0000000221000002110000012100000111031
:102A0000001002400000014000080140000C01409D
:102A10000010014000140140000401400B4BDA6833
:102A2000BB69DB4309491340CB607B6A01337B629E
:102A30003B681A687B6A22FA03F3002B7FF48EAEA0
:102A400000BF00BF2C37BD4680BC7047000401406A
:102A500080B483B000AF78600B467B8013467B70F8
:102A60007B78002B03D07A887B681A6103E07B882F
:102A70001A047B681A6100BF0C37BD4680BC7047E2
:102A800080B485B000AF78607B6803F00703FB601B
:102A90000C4BDB68BB60BA684FF6FF031340BB60AA
:102AA000FB681A02BB68134343F0BF6343F400336F
:102AB000BB60044ABB68D36000BF1437BD4680BC0E
:102AC000704700BF00ED00E080B400AF044BDB684E
:102AD0001B0A03F007031846BD4680BC704700BFC1
:102AE00000ED00E080B483B000AF0346FB7197F9BE
:102AF0000730002B0BDBFB7903F01F02064997F927
:102B000007305B09012000FA02F241F8232000BFE0
:102B10000C37BD4680BC704700E100E080B483B054
:102B200000AF03463960FB7197F90730002B0ADBD1
:102B30003B68DAB20C4997F907301201D2B20B4464
:102B400083F800230AE03B68DAB20849FB7903F016
:102B50000F03043B1201D2B20B441A7600BF0C37AC
:102B6000BD4680BC704700BF00E100E000ED00E022
:102B700080B489B000AFF860B9607A60FB6803F098
:102B80000703FB61FB69C3F10703042B28BF042380
:102B9000BB61FB690433062B02D9FB69033B00E0F0
:102BA00000237B614FF0FF32BB6902FA03F3DA4383
:102BB000BB681A407B699A404FF0FF317B6901FA8C
:102BC00003F3D9437B680B40134318462437BD46B3
:102BD00080BC704780B582B000AF78607B68013BF5
:102BE000B3F1807F01D301230FE00A4A7B68013BE8
:102BF00053600F214FF0FF30FFF790FF054B00228D
:102C00009A60044B07221A60002318460837BD4615
:102C100080BD00BF10E000E080B582B000AF7860FA
:102C20007868FFF72DFF00BF0837BD4680BD80B52F
:102C300086B000AF0346B9607A60FB7300237B6106
:102C4000FFF742FF78617A68B9687869FFF790FF0B
:102C5000024697F90F3011461846FFF75FFF00BF95
:102C60001837BD4680BD80B582B000AF0346FB710A
:102C700097F907301846FFF735FF00BF0837BD4604
:102C800080BD80B582B000AF78607868FFF7A2FFA2
:102C9000034618460837BD4680BD000080B584B0A5
:102CA00000AF78607B68002B01D101232BE17B68AA
:102CB00093F83D30DBB2002B06D17B68002283F80D
:102CC0003C20786801F0A0FD7B68242283F83D2039
:102CD0007B681B681A687B681B6822F001021A6017
:102CE0007B681B681A687B681B6842F400421A60A4
:102CF0007B681B681A687B681B6822F400421A60B4
:102D0000FFF7F0FCF8607B685B68814A934207D864
:102D1000FB68804A934294BF01230023DBB206E0A4
:102D2000FB687D4A934294BF01230023DBB2002B52
:102D300001D00123E7E0FB68784AA2FB03239B0C48
:102D4000BB607B681B685B6823F03F017B681B6886
:102D5000BA680A435A607B681B681B6A23F03F010C
:102D60007B685B686A4A934202D8BB68013309E01A
:102D7000BB684FF4967202FB03F3694AA2FB03237C
:102D80009B0901337A6812680B4313627B681B68E6
:102D9000DB6923F44F4222F0FF027B685B685C49E9
:102DA0008B4219D8FB68591E7B685B685B00B1FBDE
:102DB000F3F3591C40F6FC730B40002B0AD0FB6860
:102DC000591E7B685B685B00B1FBF3F30133C3F30F
:102DD0000B0351E004234FE07B689B68002B11D16B
:102DE000FB68581E7B6859680B465B000B44B0FBC0
:102DF000F3F30133C3F30B03002B0CBF01230023B8
:102E0000DBB212E0FB68581E7B6859680B469B00DA
:102E10000B4499000B44B0FBF3F30133C3F30B03F2
:102E2000002B0CBF01230023DBB2002B01D00123B8
:102E300022E07B689B68002B0ED1FB68581E7B68E4
:102E400059680B465B000B44B0FBF3F30133C3F34B
:102E50000B0343F400430FE0FB68581E7B6859687E
:102E60000B469B000B4499000B44B0FBF3F301337A
:102E7000C3F30B0343F44043796809681343CB6100
:102E80007B681B681B6823F0C0017B68DA697B687C
:102E90001B6A1A437B681B680A431A607B681B68BD
:102EA0009B6823F4034323F0FF037A6811697A686F
:102EB000D26811437A6812680B4393607B681B6881
:102EC000DB6823F0FF017B685A697B689B691A43C2
:102ED0007B681B680A43DA607B681B681A687B683A
:102EE0001B6842F001021A607B6800221A647B684A
:102EF000202283F83D207B6800221A637B68002231
:102F000083F83E20002318461037BD4680BD00BF21
:102F1000A08601007F841E00FF083D0083DE1B4366
:102F2000D34D621080B588B002AFF8607A601A465F
:102F30000B467B8113463B81FEF7D2FF7861FB682D
:102F400093F83D30DBB2202B40F0E0807B690093AA
:102F5000192301227049F86800F092FC0346002B07
:102F600001D00223D3E0FB6893F83C30012B01D160
:102F70000223CCE0FB68012283F83C20FB681B683D
:102F80001B6803F00103012B07D0FB681B681A685C
:102F9000FB681B6842F001021A60FB681B681A6834
:102FA000FB681B6822F400621A60FB68212283F828
:102FB0003D20FB68102283F83E20FB6800221A6443
:102FC000FB687A685A62FB683A895A85FB685B8DB0
:102FD0009AB2FB681A85FB68504ADA6279897B6984
:102FE0003A6AF86800F0FCFA0346002B01D001238E
:102FF0008DE000233B61FB681B685B693B61FB68FC
:103000001B689B693B613B6966E07A69396AF868CD
:1030100000F00CFD0346002B0DD0FB681B6C042B4D
:1030200007D1FB681B681A68FB681B6842F40072D2
:103030001A6001236BE0FB685B6A1A78FB681B6807
:103040001A61FB685B6A5A1CFB685A62FB685B8DFD
:103050009BB2013B9AB2FB685A85FB681B8D013B12
:103060009AB2FB681A85FB681B685B6903F004036E
:10307000042B1BD1FB681B8D002B17D0FB685B6AF0
:103080001A78FB681B681A61FB685B6A5A1CFB684C
:103090005A62FB685B8D9BB2013B9AB2FB685A8512
:1030A000FB681B8D013B9AB2FB681A857A69396A05
:1030B000F86800F0FCFC0346002B0DD0FB681B6C8D
:1030C000042B07D1FB681B681A68FB681B6842F475
:1030D00000721A6001231AE0FB681B8D002B94D14B
:1030E000FB681B681A68FB681B6842F400721A6070
:1030F000FB68202283F83D20FB68002283F83E20F5
:10310000FB68002283F83C20002300E002231846DD
:103110001837BD4680BD00BF020010000000FFFF51
:1031200080B58CB002AFF8607A601A460B467B819E
:1031300013463B8100233B62FEF7D2FE7862FB68B8
:1031400093F83D30DBB2202B40F03F827B6A009346
:10315000192301227F49F86800F092FB0346002BF7
:1031600001D0022332E2FB6893F83C30012B01D1FD
:1031700002232BE2FB68012283F83C20FB681B68DA
:103180001B6803F00103012B07D0FB681B681A685A
:10319000FB681B6842F001021A60FB681B681A6832
:1031A000FB681B6822F400621A60FB68222283F825
:1031B0003D20FB68102283F83E20FB6800221A6441
:1031C000FB687A685A62FB683A895A85FB685B8DAE
:1031D0009AB2FB681A85FB685F4ADA6279897B6A72
:1031E0003A6BF86800F07EFA0346002B01D0012309
:1031F000ECE1FB681B8D002B13D10023FB61FB6806
:103200001B685B69FB61FB681B689B69FB61FB6971
:10321000FB681B681A68FB681B6842F400721A603E
:10322000C0E1FB681B8D012B1ED1FB681B681A686F
:10323000FB681B6822F480621A6072B600BF00232C
:10324000BB61FB681B685B69BB61FB681B689B69B2
:10325000BB61BB69FB681B681A68FB681B6842F4AA
:1032600000721A6062B635E0FB681B8D022B1ED11E
:10327000FB681B681A68FB681B6842F400621A60EE
:1032800072B600BF00237B61FB681B685B697B61D2
:10329000FB681B689B697B617B69FB681B681A681C
:1032A000FB681B6822F480621A6062B612E0FB6859
:1032B0001B681A68FB681B6842F480621A6000236E
:1032C0003B61FB681B685B693B61FB681B689B6932
:1032D0003B613B6966E1FB681B8D032B00F21F819C
:1032E000FB681B8D012B23D17A6A396BF86800F0DB
:1032F0001FFC0346002B01D0012367E1FB681B681C
:103300001A69FB685B6AD2B21A70FB685B6A5A1C66
:10331000FB685A62FB681B8D013B9AB2FB681A85F9
:10332000FB685B8D9BB2013B9AB2FB685A8539E121
:10333000FB681B8D022B52D17B6A00933B6B0022F2
:103340000649F86800F09CFA0346002B08D00123D8
:103350003CE100BF020010000000FFFF040001007C
:1033600072B600BFFB681B681A68FB681B6842F4F2
:1033700000721A60FB681B681A69FB685B6AD2B24C
:103380001A70FB685B6A5A1CFB685A62FB681B8DEB
:10339000013B9AB2FB681A85FB685B8D9BB2013BCF
:1033A0009AB2FB685A8562B600BFFB681B681A694F
:1033B000FB685B6AD2B21A70FB685B6A5A1CFB68D6
:1033C0005A62FB681B8D013B9AB2FB681A85FB6849
:1033D0005B8D9BB2013B9AB2FB685A85E2E07B6A47
:1033E00000933B6B00227B49F86800F049FA0346E2
:1033F000002B01D00123E9E0FB681B681A68FB6819
:103400001B6822F480621A6072B600BFFB681B68FA
:103410001A69FB685B6AD2B21A70FB685B6A5A1C55
:10342000FB685A62FB681B8D013B9AB2FB681A85E8
:10343000FB685B8D9BB2013B9AB2FB685A85664B79
:103440001B68DB08654AA2FB03231A0A13469B008C
:103450001344DA00D31A3B623B6A013B3B623B6A8E
:10346000002B18D1FB6800221A63FB68202283F826
:103470003D20FB68002283F83E20FB681B6C43F074
:103480002002FB681A6462B600BFFB68002283F862
:103490003C2001239AE0FB681B685B6903F004038E
:1034A000042BD9D1FB681B681A68FB681B6842F4BF
:1034B00000721A60FB681B681A69FB685B6AD2B20B
:1034C0001A70FB685B6A5A1CFB685A62FB681B8DAA
:1034D000013B9AB2FB681A85FB685B8D9BB2013B8E
:1034E0009AB2FB685A8562B600BFFB681B681A690E
:1034F000FB685B6AD2B21A70FB685B6A5A1CFB6895
:103500005A62FB681B8D013B9AB2FB681A85FB6807
:103510005B8D9BB2013B9AB2FB685A8542E07A6AA6
:10352000396BF86800F004FB0346002B01D001233F
:103530004CE0FB681B681A69FB685B6AD2B21A70C0
:10354000FB685B6A5A1CFB685A62FB681B8D013B77
:103550009AB2FB681A85FB685B8D9BB2013B9AB2FD
:10356000FB685A85FB681B685B6903F00403042B46
:1035700018D1FB681B681A69FB685B6AD2B21A70C3
:10358000FB685B6A5A1CFB685A62FB681B8D013B37
:103590009AB2FB681A85FB685B8D9BB2013B9AB2BD
:1035A000FB685A85FB681B8D002B7FF494AEFB688B
:1035B000202283F83D20FB68002283F83E20FB6830
:1035C000002283F83C20002300E00223184628371D
:1035D000BD4680BD040001000800002089B5F81434
:1035E00080B588B002AFF8607A603B600B467B81A3
:1035F000FB68DB6A7B617B69082B06D07B69012B4A
:1036000003D07B6913F5803F08D1FB681B681A68FB
:10361000FB681B6842F480721A600BE0FB681B6B4E
:10362000122B07D1FB681B681A68FB681B6842F401
:1036300080721A603B6800937B6800224FF0011192
:10364000F86800F01DF90346002B0DD0FB681B68DD
:103650001B6803F48073B3F5807F03D1FB684FF4DC
:1036600000721A64032335E0FB681B69B3F5804FD1
:1036700008D17B89DBB21A46FB681B6802F0FE02A8
:103680001A611BE07B89DB11DBB203F00603DBB2BE
:1036900063F00F03DAB2FB681B681A613B687A6853
:1036A0000E49F86800F043F90346002B01D00123CE
:1036B00010E07B89DAB2FB681B681A613B687A68A4
:1036C0000749F86800F033F90346002B01D00123C5
:1036D00000E0002318461837BD4680BD08000100F1
:1036E0000200010080B588B002AFF8607A603B60EC
:1036F0000B467B81FB68DB6A7B61FB681B681A6891
:10370000FB681B6842F480621A607B69082B06D054
:103710007B69012B03D07B6913F5803F08D1FB68DF
:103720001B681A68FB681B6842F480721A600BE021
:10373000FB681B6B112B07D1FB681B681A68FB68C1
:103740001B6842F480721A603B6800937B68002219
:103750004FF00111F86800F093F80346002B0DD0EC
:10376000FB681B681B6803F48073B3F5807F03D18B
:10377000FB684FF400721A64032379E0FB681B694D
:10378000B3F5804F08D17B89DBB243F00103DAB295
:10379000FB681B681A615FE07B89DB11DBB203F019
:1037A0000603DBB263F00F03DAB2FB681B681A6131
:1037B0003B687A683049F86800F0B9F80346002B96
:1037C00001D0012354E07B89DAB2FB681B681A61DF
:1037D0003B687A682949F86800F0A9F80346002B8D
:1037E00001D0012344E000233B61FB681B685B6957
:1037F0003B61FB681B689B693B613B69FB681B681D
:103800001A68FB681B6842F480721A603B68009378
:103810007B6800224FF00111F86800F031F8034690
:10382000002B0DD0FB681B681B6803F48073B3F595
:10383000807F03D1FB684FF400721A64032317E002
:103840007B89DB11DBB203F00603DBB263F00E030E
:10385000DAB2FB681B681A613B687A680749F86846
:1038600000F065F80346002B01D0012300E000239F
:1038700018461837BD4680BD08000100020001004F
:1038800080B584B000AFF860B9603B601346FB714F
:1038900025E03B68B3F1FF3F21D0FEF721FB024654
:1038A000BB69D31A3A689A4202D33B68002B16D1FF
:1038B000FB6800221A63FB68202283F83D20FB6826
:1038C000002283F83E20FB681B6C43F02002FB685B
:1038D0001A64FB68002283F83C20012323E0BB68C4
:1038E0001B0CDBB2012B0DD1FB681B685B69DA4353
:1038F000BB6813409BB2002B0CBF01230023DBB23B
:103900001A460CE0FB681B689B69DA43BB681340EE
:103910009BB2002B0CBF01230023DBB21A46FB79BC
:103920009A42B6D0002318461037BD4680BD80B5F8
:1039300084B000AFF860B9607A603B6051E0FB682A
:103940001B685B6903F48063B3F5806F23D1FB6868
:103950001B681A68FB681B6842F400721A60FB68F7
:103960001B686FF480625A61FB6800221A63FB686F
:10397000202283F83D20FB68002283F83E20FB686C
:103980001B6C43F00402FB681A64FB68002283F896
:103990003C20012346E07B68B3F1FF3F21D0FEF7D6
:1039A0009FFA02463B68D31A7A689A4202D37B6830
:1039B000002B16D1FB6800221A63FB68202283F8D3
:1039C0003D20FB68002283F83E20FB681B6C43F01F
:1039D0002002FB681A64FB68002283F83C20012364
:1039E00020E0BB681B0CDBB2012B0CD1FB681B6811
:1039F0005B69DA43BB6813409BB2002B14BF012301
:103A00000023DBB20BE0FB681B689B69DA43BB68F1
:103A100013409BB2002B14BF01230023DBB2002B09
:103A20008DD1002318461037BD4680BD80B584B0C7
:103A300000AFF860B9607A602DE0F86800F0CEF869
:103A40000346002B01D001232DE0BB68B3F1FF3FFB
:103A500021D0FEF745FA02467B68D31ABA689A422B
:103A600002D3BB68002B16D1FB6800221A63FB68E7
:103A7000202283F83D20FB68002283F83E20FB686B
:103A80001B6C43F02002FB681A64FB68002283F879
:103A90003C20012307E0FB681B685B6903F080039F
:103AA000802BCAD1002318461037BD4680BD80B593
:103AB00084B000AFF860B9607A602DE0F86800F07B
:103AC0008DF80346002B01D001232DE0BB68B3F134
:103AD000FF3F21D0FEF704FA02467B68D31ABA688A
:103AE0009A4202D3BB68002B16D1FB6800221A63EE
:103AF000FB68202283F83D20FB68002283F83E20EB
:103B0000FB681B6C43F02002FB681A64FB68002210
:103B100083F83C20012307E0FB681B685B6903F026
:103B20000403042BCAD1002318461037BD4680BDBC
:103B300080B584B000AFF860B9607A6042E0FB689D
:103B40001B685B6903F01003102B19D1FB681B681D
:103B50006FF010025A61FB6800221A63FB68202292
:103B600083F83D20FB68002283F83E20FB681A6C36
:103B7000FB681A64FB68002283F83C20012329E0DB
:103B8000FEF7AEF902467B68D31ABA689A4202D3AE
:103B9000BB68002B16D1FB6800221A63FB68202249
:103BA00083F83D20FB68002283F83E20FB681B6CF5
:103BB00043F02002FB681A64FB68002283F83C2073
:103BC000012307E0FB681B685B6903F04003402B9F
:103BD000B5D1002318461037BD4680BD80B483B0F0
:103BE00000AF78607B681B685B6903F48063B3F5A2
:103BF000806F1BD17B681B686FF480625A617B68A1
:103C000000221A637B68202283F83D207B68002213
:103C100083F83E207B681B6C43F004027B681A64C7
:103C20007B68002283F83C20012300E00023184633
:103C30000C37BD4680BC7047B0B500AF734B1B68F6
:103C4000734A1360734B1B68734A12681146184617
:103C5000FCF7A0FE03461A46704B1A60704B1B68B7
:103C60006E4A126811461846FCF79EFF03461A4634
:103C70006C4B1A606C4B1B68654A126811461846FB
:103C8000FCF792FF03461C46644B1B68674A1268A8
:103C900011461846FCF780FE034619462046FCF7FD
:103CA00083FF03461846FCF7B7FB4FF000024FF0C6
:103CB0008043FCF733FD02460B4614461D465C4B21
:103CC0001B681846FCF7A8FB02460B46204629460F
:103CD000FCF744FA02460B4610461946FCF706FE6E
:103CE0000346544A1360544B1B68544A12681146E9
:103CF0001846FCF759FF03461C46484B1B684B4AC5
:103D0000126811461846FCF745FE03461946204640
:103D1000FCF74AFF03461C46484B1B683C4A1268A6
:103D200011461846FCF740FF034619464FF07E50F7
:103D3000FCF730FE03461A46414B1B6819461046F5
:103D4000FCF732FF034619462046FCF725FE0346E2
:103D50001A463C4B1A60334B1B68364A12681146B0
:103D60001846FCF719FE03461A46364B1B681946DF
:103D70001046FCF711FE03461A46334B1A602D4BD2
:103D80001B682B4A13602F4B1B682D4A1360234B73
:103D90001B68264A13602C4B1B682C491846FDF7FC
:103DA000BFF80346002B03D0274B284A1A600DE0CA
:103DB000254B1B684FF000011846FDF793F80346AA
:103DC000002B03D0204B4FF000021A601E4B1B68E3
:103DD00019461E48FCF7DEFD03461D491846FCF750
:103DE000E3FE034619491846FCF792FF03461A46BC
:103DF000184B1A60174B1B68174A14681846FDF7D2
:103E000099F80346A36300BFB0BD00BF4C0100207A
:103E10003C010020240100201C010020340100206E
:103E200028010020580100202C010020380100202A
:103E3000400100205C0100203001002048010020EA
:103E40004401002060010020500100200000C84211
:103E500000401C46540100208000002080B582B044
:103E600000AF7860044B1B68044A1360FFF7E4FE60
:103E700000BF0837BD4680BD1C010020180100208E
:103E800090B595B012AF01237B60FDF7D1FF00F034
:103E9000A7F800F0FFF900F0E9F800F015F900F0DC
:103EA0008BF904213948FDF75FF9394C684604F174
:103EB00010034422194600F09DFD94E80F0000F025
:103EC000A7FB344B344A1A60344B354A1A60354BE1
:103ED000334A1A60344B354A1A60354B354A1A60FA
:103EE000354B324A1A60354B4FF000021A60344BA2
:103EF0004FF000021A60334B4FF000021A60324B51
:103F00004FF07E521A6000224FF400512F48FEF706
:103F10009FFD1F4C2E4B1193684604F11003442261
:103F2000194600F067FD94E80F0000F011FA03460F
:103F3000002B06D12748FDF76DF8254B1B68174A63
:103F400013607B680A2B0FD8234B1B68134A126837
:103F500011461846FCF720FD03461A461E4B1A6010
:103F60007B6801337B60CEE71B4B1B680F4918460B
:103F7000FCF7CEFE03461A46184B1A6001237B60FD
:103F8000154B4FF000021A60BDE700BF8000002013
:103F90002C00002024010020000014421401002005
:103FA0000000C84118010020280100200000204125
:103FB0002C0100208FC2F53C300100203801002088
:103FC0004001002044010020480100200010014071
:103FD00010010020C8000020200100201C0100204A
:103FE00080B590B000AF07F11803282200211846D1
:103FF00000F00EFD3B1D00221A605A609A60DA60E4
:104000001A610123BB614FF48033FB6100233B62E3
:104010000123BB6202237B634FF48033BB634FF405
:10402000E013FB6307F118031846FDF787FF03460B
:10403000002B01D000F086F90F237B600223BB60C8
:104040000023FB604FF480633B6100237B613B1DD9
:1040500002211846FEF7F4F90346002B01D000F0C8
:1040600071F900BF4037BD4680BD000080B500AF8C
:10407000134B144A1A60124B42F210725A60104BE2
:1040800000229A600E4B0022DA600D4B4FF4804202
:104090001A610B4B00225A61094B00229A61084BAE
:1040A0000022DA61064B00221A620548FEF7F6FD8F
:1040B0000346002B01D000F045F900BF80BD00BFD2
:1040C0002C0000200054004080B58EB000AF07F1F6
:1040D000280300221A605A609A60DA6007F1200310
:1040E00000221A605A603B1D00221A605A609A60D2
:1040F000DA601A615A619A612E4B4FF080421A6061
:104100002C4B41F61F425A602A4B00229A60294BE1
:1041100042F21072DA60274B00221A61254B00220E
:104120009A612448FCF726FF0346002B01D000F0DB
:1041300009F94FF48053BB6207F1280319461D4863
:10414000FDF77AFA0346002B01D000F0FBF819487E
:10415000FCF7B2FF0346002B01D000F0F3F8002378
:104160003B6200237B6207F1200319461148FDF7EB
:10417000EFFD0346002B01D000F0E4F860237B60E4
:1041800042F21073BB600023FB6000237B613B1D88
:10419000042219460748FDF791F90346002B01D088
:1041A00000F0D0F8034800F0A5FB00BF3837BD464B
:1041B00080BD00BF8000002080B586B000AF07F151
:1041C000080300221A605A609A60DA603B460022B7
:1041D0001A605A602C4B2D4A1A602B4B41F61F4235
:1041E0005A60294B00229A60274B42F21072DA6023
:1041F000254B00221A61244B00229A612248FCF7C9
:10420000B9FE0346002B01D000F09CF84FF4805318
:10421000BB6007F1080319461B48FDF70DFA03467A
:10422000002B01D000F08EF800233B6000237B6060
:104230003B4619461448FDF78BFD0346002B01D081
:1042400000F080F8104B5B6801330F4AD26802FB24
:1042500003F31846FCF7BEF809A3D3E90023FCF7E3
:104260005DFA02460B4610461946FCF73FFB034633
:10427000074A136000BF1837BD4680BDAFF300800A
:1042800000000000882A9141C8000020000800407A
:104290004C01002080B588B000AF07F11003002268
:1042A0001A605A609A60DA60244B9B69234A43F093
:1042B00010039361214B9B6903F01003FB60FB68C3
:1042C0001E4B9B691D4A43F0200393611B4B9B6966
:1042D00003F02003BB60BB68184B9B69174A43F08F
:1042E00004039361154B9B6903F004037B607B68B7
:1042F000124B9B69114A43F0080393610F4B9B6972
:1043000003F008033B603B6800224FF400510C4867
:10431000FEF79EFB4FF400533B6101237B610023BA
:10432000BB610223FB6107F1100319460448FEF745
:104330000BFA00BF2037BD4680BD00BF0010024011
:104340000010014080B400AF72B600BFFEE700006D
:1043500084B080B584B002AF07F1100C8CE80F0078
:1043600000237B60304B00221A7002E07B6801332F
:104370007B607B68092B0DD82C4B1B7899B264238A
:1043800000930123284A07F11000FEF7CBFD0346F6
:10439000002BEBD10120FDF7ADFD00237B6002E097
:1043A0007B6801337B607B68092B0DD81F4B1B7822
:1043B00099B26423009302231B4A07F11000FEF711
:1043C000AFFE0346002BEBD17B68092B19D8164BA7
:1043D0001B781B02144A527813431846FCF70AF85C
:1043E0004FF000024FF07E53FCF76EF802460B468A
:1043F00010461946FCF77AFA02467B6E1A600023D3
:104400000AE04FF000014FF00000FCF781FC03468A
:104410001A467B6E1A60012318460837BD46BDE870
:10442000804004B0704700BF6401002005000020F8
:1044300084B080B584B002AF07F1100C8CE80F0097
:10444000114B01221A70104A97F8643053700E4ACB
:1044500097F8683093700D4B1B7899B264230093E2
:104460000323094A07F11000FEF75CFD0346FB71C8
:104470000120FDF73FFDFB7918460837BD46BDE832
:10448000804004B0704700BF680100200500002094
:1044900084B080B584B002AF07F1100C8CE80F0037
:1044A000114B02221A70104A97F8643053700E4A6A
:1044B00097F8683093700D4B1B7899B26423009382
:1044C0000323094A07F11000FEF72CFD0346FB7198
:1044D0000120FDF70FFDFB7918460837BD46BDE802
:1044E000804004B0704700BF6C0100200500002030
:1044F00084B080B584B002AF07F1100C8CE80F00D7
:10450000114B03221A70104A97F8643053700E4A08
:1045100097F8683093700D4B1B7899B26423009321
:104520000323094A07F11000FEF7FCFC0346FB7168
:104530000120FDF7DFFCFB7918460837BD46BDE8D2
:10454000804004B0704700BF7001002005000020CB
:1045500084B080B584B002AF07F1100C8CE80F0076
:10456000114B04221A70104A97F8643053700E4AA7
:1045700097F8683093700D4B1B7899B264230093C1
:104580000323094A07F11000FEF7CCFC0346FB7138
:104590000120FDF7AFFCFB7918460837BD46BDE8A2
:1045A000804004B0704700BF740100200500002067
:1045B00084B080B584B002AF07F1100C8CE80F0016
:1045C000114B07221A70104A97F8643053700E4A44
:1045D00097F8683093700D4B1B7899B26423009361
:1045E0000323094A07F11000FEF79CFC0346FB7108
:1045F0000120FDF77FFCFB7918460837BD46BDE872
:10460000804004B0704700BF780100200500002002
:1046100084B080B594B014AF07F1080C8CE80F009B
:1046200002E00120FDF766FC22231293022311937E
:10463000684607F118034422194600F0DBF907F138
:1046400008030FCBFFF7F4FE0346002BE9D102E08D
:104650000120FDF74FFC10231293002311936846AD
:1046600007F118034422194600F0C4F907F10803C2
:104670000FCBFFF7DDFE0346002BE9D102E001205E
:10468000FDF738FC0023129300231193684607F1CD
:1046900018034422194600F0ADF907F108030FCBC7
:1046A000FFF786FF0346002BE9D102E00120FDF76A
:1046B00021FC0023129380231193684607F118030D
:1046C0004422194600F096F907F108030FCBFFF7D3
:1046D0000FFF0346002BE9D102E00120FDF70AFCA1
:1046E0000023129360231193684607F118034422B4
:1046F000194600F07FF907F108030FCBFFF7C8FE5A
:104700000346002BE9D102E00120FDF7F3FB002373
:10471000129300231193684607F1180344221946A7
:1047200000F068F907F108030FCBFFF711FF03460C
:10473000002BE9D100BF00BFBD46BDE8804004B0FA
:10474000704780B400AFFEE780B400AFFEE780B4EE
:1047500000AFFEE780B400AFFEE780B400AFFEE735
:1047600080B400AF00BFBD4680BC704780B400AFCE
:1047700000BFBD4680BC704780B400AF00BFBD46DF
:1047800080BC704780B500AFFDF798FB00BF80BDCF
:1047900080B500AF0248FCF789FD00BF80BD00BFB7
:1047A000C800002080B485B000AF154B9B69144A47
:1047B00043F001039361124B9B6903F00103BB605B
:1047C000BB680F4BDB690E4A43F08053D3610C4B3F
:1047D000DB6903F080537B607B680A4B5B68FB609E
:1047E000FB6823F0E063FB60FB6843F00073FB6051
:1047F000044AFB68536000BF1437BD4680BC704755
:10480000001002400000014080B588B000AF786021
:1048100007F1100300221A605A609A60DA607B6820
:104820001B68154A934223D1144B9B69134A43F0EA
:1048300008039361114B9B6903F00803FB60FB685D
:10484000C0233B6112237B610323FB6107F110034B
:1048500019460B48FDF778FF084BDB69074A43F41C
:104860000013D361054BDB6903F40013BB60BB6825
:1048700000BF2037BD4680BD0054004000100240FC
:10488000000C014080B584B000AF78607B681B6885
:10489000B3F1804F0CD1154BDB69144A43F001038F
:1048A000D361124BDB6903F00103FB60FB6818E086
:1048B0007B681B680E4A934213D10C4BDB690B4A91
:1048C00043F00403D361094BDB6903F00403BB60CD
:1048D000BB68002200211E20FEF7A9F91E20FEF76A
:1048E000C2F900BF1037BD4680BD00BF00100240B6
:1048F0000008004080B588B000AF786007F1100371
:1049000000221A605A609A60DA607B681B68B3F113
:10491000804F17D10D4B9B690C4A43F00403936100
:104920000A4B9B6903F00403FB60FB6802233B61B5
:1049300002237B610223FB6107F11003194604483F
:10494000FDF702FF00BF2037BD4680BD00100240CA
:104950000008014080B400AF00BFBD4680BC704776
:10496000002103E00B4B5B58435004310A480B4BCA
:1049700042189A42F6D30A4A02E0002342F8043B66
:10498000084B9A42F9D3FFF7E5FF00F00FF8FFF765
:1049900077FA7047684A0008000000200C000020E9
:1049A0000C0000207C010020FEE7000070B500260E
:1049B0000C4D0D4C641BA410A64209D100F030F838
:1049C00000260A4D0A4C641BA410A64205D170BDF6
:1049D00055F8043B98470136EEE755F8043B9847F5
:1049E0000136F2E7604A0008604A0008604A0008A1
:1049F000644A00080A44914200F1FF3300D1704735
:104A000010B511F8014B914203F8014FF9D110BDD7
:104A100003460244934200D1704703F8011BF9E7B3
:104A2000F8B500BFF8BC08BC9E467047F8B500BF9B
:084A3000F8BC08BC9E4670476B
:104A380002030405060708090A0B0C0D0E0F1010D7
:104A48000000000000000000010203040607080936
:084A580000000000010203044C
:044A60003501000814
:044A64001101000834
:0C4A680010000000019000000024F40089
:040000050800496145
:00000001FF
