:020000040800F2
:100000000050002081580008A9200008AF200008F7
:10001000B5200008BB200008C12000080000000037
:10002000000000000000000000000000C7200008E1
:10003000D320000800000000DF200008EB200008AB
:10004000C9580008C9580008C9580008C95800080C
:10005000C9580008C9580008C9580008C9580008FC
:10006000C9580008C9580008C9580008C9580008EC
:10007000C9580008C9580008C9580008C9580008DC
:10008000C9580008C9580008C9580008C9580008CC
:10009000C9580008C9580008C9580008C9580008BC
:1000A000C9580008C9580008C9580008C9580008AC
:1000B000C9580008C9580008F9200008C9580008A4
:1000C000C9580008C9580008C9580008C95800088C
:1000D000C9580008C9580008C9580008C95800087C
:1000E000C9580008C9580008C95800080000000095
:1000F0000000000000000000000000000000000000
:0C01000000000000000000005FF808F1A3
:1001100010B5054C237833B9044B13B10448AFF341
:1001200000800123237010BD180000200000000093
:10013000DC59000808B5034B1BB103490348AFF372
:10014000008008BD000000001C000020DC590008F1
:1001500081F0004102E000BF83F0004330B54FEA78
:1001600041044FEA430594EA050F08BF90EA020FE5
:100170001FBF54EA000C55EA020C7FEA645C7FEA78
:10018000655C00F0E2804FEA5454D4EB5555B8BF9B
:100190006D420CDD2C4480EA020281EA030382EA0C
:1001A000000083EA010180EA020281EA0303362D9E
:1001B00088BF30BD11F0004F4FEA01314FF4801C71
:1001C0004CEA113102D0404261EB410113F0004F83
:1001D0004FEA03334CEA133302D0524263EB43033A
:1001E00094EA050F00F0A780A4F10104D5F1200ED8
:1001F0000DDB02FA0EFC22FA05F2801841F1000133
:1002000003FA0EF2801843FA05F359410EE0A5F106
:1002100020050EF1200E012A03FA0EFC28BF4CF037
:10022000020C43FA05F3C01851EBE37101F00045ED
:1002300007D54FF0000EDCF1000C7EEB00006EEBFA
:100240000101B1F5801F1BD3B1F5001F0CD3490884
:100250005FEA30004FEA3C0C04F101044FEA4452DB
:1002600012F5800F80F09A80BCF1004F08BF5FEA62
:10027000500C50F1000041EB045141EA050130BD42
:100280005FEA4C0C404141EB0101013C28BFB1F554
:10029000801FE9D291F0000F04BF01460020B1FA9F
:1002A00081F308BF2033A3F10B03B3F120020CDA72
:1002B0000C3208DD02F1140CC2F10C0201FA0CF050
:1002C00021FA02F10CE002F11402D8BFC2F1200CB5
:1002D00001FA02F120FA0CFCDCBF41EA0C0190406B
:1002E000E41AA2BF01EB0451294330BD6FEA0404B4
:1002F0001F3C1CDA0C340EDC04F11404C4F120029F
:1003000020FA04F001FA02F340EA030021FA04F3B0
:1003100045EA030130BDC4F10C04C4F1200220FA07
:1003200002F001FA04F340EA0300294630BD21FA45
:1003300004F0294630BD94F0000F83F4801306BF0B
:1003400081F480110134013D4EE77FEA645C18BFFF
:100350007FEA655C29D094EA050F08BF90EA020F96
:1003600005D054EA000C04BF1946104630BD91EA8E
:10037000030F1EBF0021002030BD5FEA545C05D191
:100380004000494128BF41F0004130BD14F58004D0
:100390003CBF01F5801130BD01F0004545F0FE4144
:1003A00041F470014FF0000030BD7FEA645C1ABF79
:1003B000194610467FEA655C1CBF0B46024650EAB0
:1003C000013406BF52EA033591EA030F41F40021DC
:1003D00030BD00BF90F0000F04BF0021704730B562
:1003E0004FF4806404F132044FF000054FF0000137
:1003F00050E700BF90F0000F04BF0021704730B5F8
:100400004FF4806404F1320410F0004548BF4042CC
:100410004FF000013EE700BF42004FEAE2014FEA21
:1004200031014FEA02701FBF12F07F4393F07F4FFC
:1004300081F06051704732F07F4208BF704793F0FF
:100440007F4F04BF41F40021704730B54FF4607412
:1004500001F0004521F000411CE700BF50EA010215
:1004600008BF704730B54FF000050AE050EA0102BE
:1004700008BF704730B511F0004502D5404261EB2E
:1004800041014FF4806404F132045FEA915C3FF46F
:10049000D8AE4FF003025FEADC0C18BF03325FEA0C
:1004A000DC0C18BF033202EBDC02C2F1200300FABD
:1004B00003FC20FA02F001FA03FE40EA0E0021FAE2
:1004C00002F11444BDE600BF70B54FF0FF0C4CF4D0
:1004D000E06C1CEA11541DBF1CEA135594EA0C0F82
:1004E00095EA0C0F00F0DEF82C4481EA030621EABD
:1004F0004C5123EA4C5350EA013518BF52EA0335F8
:1005000041F4801143F4801338D0A0FB02CE4FF0A9
:100510000005E1FB02E506F00042E0FB03E54FF0D9
:100520000006E1FB03569CF0000F18BF4EF0010ED1
:10053000A4F1FF04B6F5007F64F5407404D25FEACD
:100540004E0E6D4146EB060642EAC62141EA555180
:100550004FEAC52040EA5E504FEACE2EB4F1FD0CC2
:1005600088BFBCF5E06F1ED8BEF1004F08BF5FEA40
:10057000500E50F1000041EB045170BD06F00046F2
:1005800046EA010140EA020081EA0301B4EB5C049F
:10059000C2BFD4EB0C0541EA045170BD41F4801197
:1005A0004FF0000E013C00F3AB8014F1360FDEBFBC
:1005B000002001F0004170BDC4F10004203C35DA98
:1005C0000C341BDC04F11404C4F1200500FA05F31B
:1005D00020FA04F001FA05F240EA020001F00042BC
:1005E00021F0004110EBD37021FA04F642EB060132
:1005F0005EEA430E08BF20EAD37070BDC4F10C045C
:10060000C4F1200500FA04F320FA05F001FA04F21F
:1006100040EA020001F0004110EBD37041F100010B
:100620005EEA430E08BF20EAD37070BDC4F1200516
:1006300000FA05F24EEA020E20FA04F301FA05F27E
:1006400043EA020321FA04F001F0004121FA04F226
:1006500020EA020000EBD3705EEA430E08BF20EAF6
:10066000D37070BD94F0000F0FD101F00046400030
:1006700041EB010111F4801F08BF013CF7D041EAB2
:10068000060195F0000F18BF704703F000465200B6
:1006900043EB030313F4801F08BF013DF7D043EA87
:1006A0000603704794EA0C0F0CEA135518BF95EA3D
:1006B0000C0F0CD050EA410618BF52EA4306D1D1C4
:1006C00081EA030101F000414FF0000070BD50EAE3
:1006D000410606BF1046194652EA430619D094EA6D
:1006E0000C0F02D150EA013613D195EA0C0F05D157
:1006F00052EA03361CBF104619460AD181EA0301AB
:1007000001F0004141F0FE4141F470014FF0000062
:1007100070BD41F0FE4141F4780170BD70B54FF0FD
:10072000FF0C4CF4E06C1CEA11541DBF1CEA13557D
:1007300094EA0C0F95EA0C0F00F0A7F8A4EB05045F
:1007400081EA030E52EA03354FEA013100F0888056
:100750004FEA03334FF0805545EA131343EA12631F
:100760004FEA022245EA111545EA10654FEA0026D4
:100770000EF000419D4208BF964244F1FD0404F58D
:10078000407402D25B084FEA3202B61A65EB0305E9
:100790005B084FEA32024FF480104FF4002CB6EBA6
:1007A000020E75EB030E22BFB61A754640EA0C0026
:1007B0005B084FEA3202B6EB020E75EB030E22BF66
:1007C000B61A754640EA5C005B084FEA3202B6EBA7
:1007D000020E75EB030E22BFB61A754640EA9C0066
:1007E0005B084FEA3202B6EB020E75EB030E22BF36
:1007F000B61A754640EADC0055EA060E18D04FEAF4
:10080000051545EA16754FEA06164FEAC30343EA93
:1008100052734FEAC2025FEA1C1CC0D111F4801F60
:100820000BD141EA00014FF000004FF0004CB6E759
:1008300011F4801F04BF01430020B4F1FD0C88BFF8
:10084000BCF5E06F3FF6AFAEB5EB030C04BFB6EB03
:10085000020C5FEA500C50F1000041EB045170BDF6
:100860000EF0004E4EEA113114EB5C04C2BFD4EB23
:100870000C0541EA045170BD41F480114FF0000EA7
:10088000013C90E645EA060E8DE60CEA135594EA23
:100890000C0F08BF95EA0C0F3FF43BAF94EA0C0F26
:1008A0000AD150EA01347FF434AF95EA0C0F7FF49B
:1008B00025AF104619462CE795EA0C0F06D152EAEF
:1008C00003353FF4FDAE1046194622E750EA4106D3
:1008D00018BF52EA43067FF4C5AE50EA41047FF4E4
:1008E0000DAF52EA43057FF4EBAE12E74FEA410247
:1008F000B2F1E04324BFB3F5001CDCF1FE5C0DD97E
:1009000001F0004C4FEAC0024CEA5070B2F1004FC7
:1009100040EB830008BF20F00100704711F0804FCA
:1009200021D113F13872BCBF01F00040704741F48F
:1009300080114FEA5252C2F11802C2F1200C10FA93
:100940000CF320FA02F018BF40F001004FEAC12377
:100950004FEAD32303FA0CFC40EA0C0023FA02F31B
:100960004FEA4303CCE77FEA625307D150EA0133F1
:100970001EBF4FF0FE4040F44000704701F00040C1
:1009800040F0FE4040F40000704700BF80F000409F
:1009900002E000BF81F0004142001FBF5FEA410357
:1009A00092EA030F7FEA226C7FEA236C6AD04FEA57
:1009B0001262D2EB1363C1BFD2184140484041409C
:1009C000B8BF5B42192B88BF704710F0004F40F44E
:1009D000000020F07F4018BF404211F0004F41F46A
:1009E000000121F07F4118BF494292EA030F3FD036
:1009F000A2F1010241FA03FC10EB0C00C3F1200349
:100A000001FA03F100F0004302D5494260EB4000D7
:100A1000B0F5000F13D3B0F1807F06D340084FEA42
:100A2000310102F10102FE2A51D2B1F1004F40EB37
:100A3000C25008BF20F0010040EA0300704749009F
:100A400040EB0000013A28BFB0F5000FEDD2B0FA3C
:100A500080FCACF1080CB2EB0C0200FA0CF0AABF5F
:100A600000EBC25052421843BCBFD04018437047FD
:100A700092F0000F81F4000106BF80F40000013203
:100A8000013BB5E74FEA41037FEA226C18BF7FEADA
:100A9000236C21D092EA030F04D092F0000F08BF1C
:100AA0000846704790EA010F1CBF0020704712F003
:100AB0007F4F04D1400028BF40F00040704712F142
:100AC00000723CBF00F50000704700F0004343F0A7
:100AD000FE4040F4000070477FEA226216BF0846DD
:100AE0007FEA23630146420206BF5FEA412390EAA0
:100AF000010F40F4800070474FF0000304E000BF96
:100B000010F0004348BF40425FEA000C08BF704746
:100B100043F0964301464FF000001CE050EA01020A
:100B200008BF70474FF000030AE000BF50EA01021F
:100B300008BF704711F0004302D5404261EB41010C
:100B40005FEA010C02BF84460146002043F0B64331
:100B500008BFA3F18053A3F50003BCFA8CF2083A56
:100B6000A3EBC25310DB01FA02FC634400FA02FC5F
:100B7000C2F12002BCF1004F20FA02F243EB020066
:100B800008BF20F00100704702F1200201FA02FCC8
:100B9000C2F1200250EA4C0021FA02F243EB0200BB
:100BA00008BF20EADC7070474FF0FF0C1CEAD052FF
:100BB0001EBF1CEAD15392EA0C0F93EA0C0F6FD0C0
:100BC0001A4480EA010C400218BF5FEA41211ED09E
:100BD0004FF0006343EA501043EA5111A0FB01318A
:100BE0000CF00040B1F5000F3EBF490041EAD3715F
:100BF0005B0040EA010062F17F02FD2A1DD8B3F1DB
:100C0000004F40EBC25008BF20F00100704790F049
:100C1000000F0CF0004C08BF49024CEA502040EA9B
:100C200051207F3AC2BFD2F1FF0340EAC250704761
:100C300040F400004FF00003013A5DDC12F1190F9F
:100C4000DCBF00F000407047C2F10002410021FA11
:100C500002F1C2F1200200FA02FC5FEA310040F129
:100C6000000053EA4C0308BF20EADC70704792F0A2
:100C7000000F00F0004C02BF400010F4000F013ADA
:100C8000F9D040EA0C0093F0000F01F0004C02BFD5
:100C9000490011F4000F013BF9D041EA0C018FE744
:100CA0000CEAD15392EA0C0F18BF93EA0C0F0AD04A
:100CB00030F0004C18BF31F0004CD8D180EA010070
:100CC00000F00040704790F0000F17BF90F0004F09
:100CD000084691F0000F91F0004F14D092EA0C0FEB
:100CE00001D142020FD193EA0C0F03D14B0218BF7E
:100CF000084608D180EA010000F0004040F0FE40C4
:100D000040F40000704740F0FE4040F4400070475F
:100D10004FF0FF0C1CEAD0521EBF1CEAD15392EADE
:100D20000C0F93EA0C0F69D0A2EB030280EA010CCE
:100D300049024FEA402037D04FF0805343EA111167
:100D400043EA10130CF000408B4238BF5B0042F1C5
:100D50007D024FF4000C8B4224BF5B1A40EA0C006A
:100D6000B3EB510F24BFA3EB510340EA5C00B3EB9C
:100D7000910F24BFA3EB910340EA9C00B3EBD10F8A
:100D800024BFA3EBD10340EADC001B0118BF5FEADC
:100D90001C1CE0D1FD2A3FF650AF8B4240EBC25005
:100DA00008BF20F0010070470CF0004C4CEA5020C6
:100DB0007F32C2BFD2F1FF0340EAC250704740F415
:100DC00000004FF00003013A37E792F0000F00F007
:100DD000004C02BF400010F4000F013AF9D040EA85
:100DE0000C0093F0000F01F0004C02BF490011F419
:100DF000000F013BF9D041EA0C0195E70CEAD15311
:100E000092EA0C0F08D142027FF47DAF93EA0C0FF7
:100E10007FF470AF084676E793EA0C0F04D14B02DB
:100E20003FF44CAF08466EE730F0004C18BF31F08D
:100E3000004CCAD130F000427FF45CAF31F0004387
:100E40007FF43CAF5FE700BF4FF0FF3C06E000BF20
:100E50004FF0010C02E000BF4FF0010C4DF804CD43
:100E60004FEA40024FEA41037FEA226C18BF7FEA53
:100E7000236C11D001B052EA530C18BF90EA010F55
:100E800058BFB2EB030088BFC81738BF6FEAE170E4
:100E900018BF40F0010070477FEA226C02D15FEA80
:100EA000402C05D17FEA236CE4D15FEA412CE1D0EC
:100EB0005DF8040B704700BF844608466146FFE7B3
:100EC0000FB5FFF7C9FF002848BF10F1000F0FBD95
:100ED0004DF808EDFFF7F4FF0CBF012000205DF88E
:100EE00008FB00BF4DF808EDFFF7EAFF34BF012013
:100EF00000205DF808FB00BF4DF808EDFFF7E0FFAC
:100F000094BF012000205DF808FB00BF4DF808EDFC
:100F1000FFF7D2FF94BF012000205DF808FB00BF5F
:100F20004DF808EDFFF7C8FF34BF012000205DF841
:100F300008FB00BF4FEA4002B2F1FE4F0FD34FF063
:100F40009E03B3EB12620DD94FEA002343F0004336
:100F500010F0004F23FA02F018BF404270474FF0E4
:100F60000000704712F1610F01D1420205D110F06B
:100F7000004008BF6FF0004070474FF0000070471E
:100F800042000ED2B2F1FE4F0BD34FF09E03B3EBF3
:100F9000126209D44FEA002343F0004323FA02F01F
:100FA00070474FF00000704712F1610F01D142020B
:100FB00002D14FF0FF3070474FF00000704700BF84
:100FC000B0B584B000AF764B1B68764A1360764BA1
:100FD0001B68764A126811461846FFF7DBFC034689
:100FE000FB60734B1B681946F868FFF7DDFD03468D
:100FF000BB60704B1B686B4A126811461846FFF7BE
:10100000D3FD03461C466C4B1B68F9681846FFF776
:10101000C3FC034619462046FFF7C6FD03461846A3
:10102000FFF7FAF94FF000024FF08043FFF776FB2D
:1010300002460B4614461D46604B1B681846FFF7D8
:10104000EBF902460B4620462946FFF787F8024691
:101050000B4610461946FFF749FC03467B60584B88
:101060001B68584A126811461846FFF79DFD034653
:101070001C46514B1B681946F868FFF78BFC03466A
:1010800019462046FFF790FD03461C464D4B1B6852
:10109000444A126811461846FFF786FD03464FF092
:1010A0007E511846FFF778FC03461A46464B1B68EC
:1010B00019461046FFF778FD034619462046FFF70C
:1010C0006BFC03463B607968B868FFF765FC034634
:1010D00039681846FFF760FC03461A463B4B1A6016
:1010E000364A7B681360384A3B681360324AFB68B3
:1010F0001360364B1B6836491846FFF711FF03464D
:10110000002B03D0314B324A1A600DE02F4B1B6885
:101110004FF000011846FFF7E5FE0346002B03D011
:101120002A4B4FF000021A60284B1B684FF0000159
:101130001846FFF7CDFE0346002B04D004212548B6
:1011400001F0D4FA27E00421224801F02DFA214BC6
:101150001B68DB6A1846FFF7CFFC04461B4B1B6875
:1011600019461B48FFF716FC034619462046FFF7B1
:101170001BFD034616491846FFF7CAFD03461A46EB
:10118000154B1A60144B1B68124A14681846FFF777
:10119000F7FE0346636300BF1037BD46B0BD00BF16
:1011A00094010020800100206801002064010020DB
:1011B0006C010020700100207C01002084010020CF
:1011C000740100208C01002088010020780100209B
:1011D0000000C842B80000209001002080B582B015
:1011E00000AF7860104B1B78002B0ED00122082135
:1011F0000E4803F074F80C4B00221A7001224FF4D1
:1012000080710B4803F06BF807E0002208210748C3
:1012100003F065F8044B01221A70FFF7D1FE00BFFE
:101220000837BD4680BD00BF00000020000C014013
:101230000008014098B500AF5D4B1B68002B78D1CA
:101240005C4B1B680A225C49184604F07BFB594B37
:101250001B685A4A13600221022000F0C9FD0122D6
:101260005749554800F05AFE0C21022000F0C0FDFD
:1012700001225349534800F051FE1621022000F08C
:10128000B7FD514B1B681846FFF754FE03460A2270
:101290004949184604F056FB01224949464800F0E6
:1012A0003DFE1621102000F0A3FD012244494748CD
:1012B00000F034FE1621172000F09AFD424B1C6806
:1012C000414B1B681846FFF735FE03461846FFF7EB
:1012D00017FC034619462046FFF75CFB03463C49D2
:1012E0001846FFF761FC03461846FFF723FE034646
:1012F0000A223149184604F025FB012230492E48C4
:1013000000F00CFE2021022000F072FD314B1B6822
:101310001846FFF70FFE03460A222749184604F035
:1013200011FB01222649244800F0F8FD00F0BCFC26
:101330003CE01F4B1B68012B38D11E4B1B680A2257
:101340001D49184604F0FEFA1C4B1A68194B1B681D
:101350009A422BD000F007FE164B1B68174A136009
:101360000221022000F044FD01221549124800F03C
:10137000D5FD0C21022000F03BFD0122104916484A
:1013800000F0CCFD1621022000F032FD01220C49B4
:10139000124800F0C3FD2021022000F029FD0122A7
:1013A00007490F4800F0BAFD00F07EFC00BF98BD71
:1013B000480100204C010020540100205001002071
:1013C00004000020F459000864010020045A0008B9
:1013D0000000C84278010020085A0008145A00088A
:1013E000245A000880B500AF184B1B68002B06D1AB
:1013F000174B1B68012B02D1144B01221A60134BAF
:101400001B68012B1CD1124B1B68012B03D1114807
:1014100000F0F2FF14E00E4B1B68022B09D10D48BF
:1014200001F03CF800224FF480710B4802F057FFA6
:1014300006E0074B1B68002B02D1044B00221A6008
:10144000064B63221A6000BF80BD00BF4801002028
:101450004C01002000010020000801405001002044
:1014600080B584B000AF4021694802F021FF0346F7
:10147000FB730023BB6001F0A5FF00F0F3F800F060
:10148000ADFA00F089F900F03BFA00F047F900F0FE
:10149000B1F900F045FB012210215E4802F01FFF68
:1014A0005D4B5E4A1A605E4B5E4A1A605E4B4FF0BF
:1014B0007E521A605D4B5E4A1A605E4B5E4A1A604D
:1014C0005E4B4FF000021A605D4B4FF000021A6055
:1014D0005C4B4FF000021A605B4B4FF07E521A607B
:1014E00004215A4801F060F8594800F085FF402176
:1014F000474802F0DDFE0346FB71FA79FB7B9A4216
:101500001DD08021424802F0D3FE03461A46FB79E3
:10151000934203D0BB68013BBB6002E0BB68013370
:10152000BB60BB6803F00103002B03D1BB685B0801
:10153000484A1360BB68642B01D90023BB60FB7968
:10154000FB73454803F048FE6421434803F0F2FE74
:10155000414803F0F5FF0346404A13603F4B1B68C8
:101560001846FEF737FF24A3D3E90023FEF7ACFFAC
:1015700002460B461046194621A3D3E90023FFF784
:10158000CDF802460B46104619461FA3D3E90023A7
:10159000FFF7C4F802460B4610461946FFF7A6F9B6
:1015A00003461F4A1360FFF745FE1D4B1B681B498E
:1015B0001846FFF797FC0346002B06D001224FF494
:1015C0000051274802F08BFE0AE000220221104859
:1015D00002F085FE00224FF40051214802F07FFE08
:1015E0004FF480610B4802F063FE0346002B3FF48A
:1015F0007EAFFFF7F7FE7AE79A9999999999F13FAB
:101600000000000000FEAF407B14AE47E17A843F4B
:1016100000080140000C0140680100200000A041CA
:10162000640100200000C8416C010020700100200E
:10163000CDCCCC3D740100200AD7233C7C01002096
:1016400084010020880100208C010020B8000020C7
:10165000000100204C010020340000206001002027
:101660000010014080B594B000AF07F12803282294
:101670000021184604F068F907F1140300221A60EB
:101680005A609A60DA601A613B1D00221A605A6043
:101690009A60DA600123BB624FF48033FB6200235F
:1016A0003B630123BB6302237B644FF48033BB6441
:1016B0004FF4E013FB6407F12803184601F0E4FE41
:1016C0000346002B01D000F025FA0F237B61022393
:1016D000BB610023FB614FF480633B6200237B62AC
:1016E00007F114030221184602F050F90346002BBB
:1016F00001D000F00FFA02237B604FF40043FB603F
:101700003B1D184602F0DAFA0346002B01D000F028
:1017100001FA00BF5037BD4680BD000080B584B0DF
:1017200000AF3B1D00221A605A609A60184B194A9C
:101730001A60174B00229A60154B00221A73144B43
:1017400000221A75124B4FF46022DA61104B00220E
:101750005A600F4B01221A610D4803F065FC0346E5
:10176000002B01D000F0D6F903237B600123BB607E
:101770000023FB603B1D1946054803F0EDFE0346C0
:10178000002B01D000F0C6F900BF1037BD4680BD68
:10179000340000200024014080B500AF124B134AF2
:1017A0001A60114B124A5A600F4B00229A600E4B7E
:1017B0000022DA600C4B4FF480421A610A4B00227F
:1017C0005A61094B00229A61074B0022DA61064BED
:1017D00000221A62044802F0AFFE0346002B01D03B
:1017E00000F098F900BF80BD640000200054004064
:1017F000801A060080B58EB000AF07F128030022E2
:101800001A605A609A60DA6007F1200300221A60B9
:101810005A603B1D00221A605A609A60DA601A61B1
:101820005A619A61354B4FF080421A60334B41F652
:101830001F425A60314B00229A60304B42F21072C4
:10184000DA602E4B00221A612C4B00229A612B4841
:1018500000F082FD0346002B01D000F05BF94FF44D
:101860008053BB6207F128031946244801F0AEF902
:101870000346002B01D000F04DF9204800F03CFE5B
:101880000346002B01D000F045F900233B62002302
:101890007B6207F120031946184801F023FD034637
:1018A000002B01D000F036F960237B6041F28833D1
:1018B000BB600023FB6000237B613B1D04221946B3
:1018C0000E4801F0C5F80346002B01D000F022F9C4
:1018D00042F21073BB603B1D08221946074801F015
:1018E000B7F80346002B01D000F014F9034800F0CC
:1018F00003FD00BF3837BD4680BD00BFB8000020E3
:1019000080B586B000AF07F1080300221A605A6064
:101910009A60DA603B4600221A605A602C4B2D4ACE
:101920001A602B4B41F61F425A60294B00229A60E5
:10193000274B42F21072DA60254B00221A61244BC9
:1019400000229A61224800F007FD0346002B01D0D7
:1019500000F0E0F84FF48053BB6007F1080319462C
:101960001B4801F033F90346002B01D000F0D2F8F8
:1019700000233B6000237B603B461946144801F07E
:10198000B1FC0346002B01D000F0C4F8104B5B689B
:1019900001330F4AD26802FB03F31846FEF71AFD23
:1019A00009A3D3E90023FEF7B9FE02460B46104611
:1019B0001946FEF79BFF0346074A136000BF18371E
:1019C000BD4680BDAFF3008000000000882A914131
:1019D00000010020000800409401002080B588B07C
:1019E00000AF07F1100300221A605A609A60DA60B3
:1019F000444B9B69434A43F010039361414B9B69FD
:101A000003F01003FB60FB683E4B9B693D4A43F0CB
:101A1000200393613B4B9B6903F02003BB60BB68D1
:101A2000384B9B69374A43F004039361354B9B69FC
:101A300003F004037B607B68324B9B69314A43F0BF
:101A4000080393612F4B9B6903F008033B603B68DD
:101A500000224FF400512C4802F041FC00224FF4C8
:101A6000A0612A4802F03BFC00221821284802F01D
:101A700036FC4FF400533B6101237B610023BB61C3
:101A80000223FB6107F1100319461F4802F08CFA8C
:101A9000C0233B6100237B610123BB6107F110037D
:101AA00019461A4802F080FA4FF480633B61002324
:101AB0007B610223BB6107F110031946144802F051
:101AC00073FA4FF4A0633B6101237B610023BB6188
:101AD0000223FB6107F1100319460C4802F064FA77
:101AE00018233B6101237B610023BB610223FB615F
:101AF00007F110031946064802F056FA00BF2037D6
:101B0000BD4680BD001002400010014000080140A9
:101B1000000C014080B400AF72B600BFFEE70000C9
:101B200080B582B000AF00F027FA44F620630122AE
:101B300078215B4802F042FF0346002B01D00023CE
:101B4000A9E040F6C4137B6002E07B68013B7B6048
:101B50007B68002BF9D1AE220021782000F086FAB4
:101B600020220021782000F081FA10220021782024
:101B700000F07CFAB0220021782000F077FAC82229
:101B80000021782000F072FA00220021782000F075
:101B90006DFA10220021782000F068FA402200211E
:101BA000782000F063FA81220021782000F05EFAAC
:101BB000FF220021782000F059FAA122002178208C
:101BC00000F054FAA6220021782000F04FFAA82253
:101BD0000021782000F04AFA3F220021782000F00E
:101BE00045FAA4220021782000F040FAD3220021F7
:101BF000782000F03BFA00220021782000F036FA2D
:101C0000D5220021782000F031FAF022002178203E
:101C100000F02CFAD9220021782000F027FA2222A5
:101C20000021782000F022FADA220021782000F04A
:101C30001DFA12220021782000F018FADB22002180
:101C4000782000F013FA20220021782000F00EFA0C
:101C50008D220021782000F009FA1422002178203A
:101C600000F004FAAF220021782000F0FFF92E22C4
:101C70000021782000F0FAF9002000F043F800F08D
:101C800013F8084B00221A80064B00225A80054B9D
:101C900001225A71012318460837BD4680BD00BF96
:101CA000640000209805002080B582B000AF0023BA
:101CB000FB711DE0FB79503BDBB21A460021782016
:101CC00000F0D4F900220021782000F0CFF9102292
:101CD0000021782000F0CAF9FB79DB01084A1A4498
:101CE00080234021782000F05BF9FB790133FB7100
:101CF000FB79072BDED900BF00BF0837BD4680BD8A
:101D00009801002080B582B000AF0346FB71FB79DB
:101D1000002B01D1002300E0FF234FF4806219461D
:101D2000034803F011FE00BF0837BD4680BD00BF69
:101D30009801002080B483B000AF0346FB800B46BF
:101D4000BB801346FB70FB887F2B48D8BB883F2B9A
:101D500045D8254B1B79002B06D0FB78002B0CBFF8
:101D600001230023DBB2FB70FB78012B1AD1FA8828
:101D7000BB88DB0898B20346DB0113441B4AD35CE3
:101D80005AB2BB8803F00703012101FA03F35BB2E7
:101D9000134359B2FA880346DB011344C9B2134A0C
:101DA000D1541DE0FA88BB88DB0898B20346DB01FA
:101DB00013440E4AD35C5AB2BB8803F007030121D7
:101DC00001FA03F35BB2DB435BB2134059B2FA880A
:101DD0000346DB011344C9B2044AD15400E000BFFA
:101DE0000C37BD4680BC7047980500209801002044
:101DF00080B483B000AF03460A46FB801346BB8025
:101E0000054AFB881380044ABB88538000BF0C3707
:101E1000BD4680BC704700BF9805002080B586B0E5
:101E200000AF03463960FB711346BB713A4B1B8808
:101E30001A463B681B7813447F2B07DC364B5B88C4
:101E40001A463B685B7813443F2B01DD00235EE0BC
:101E500000237B614BE03B685A68FB79203B396883
:101E6000497801FB03F319467B690B445B0013447B
:101E70001B88FB6000233B6130E0FA683B6902FA93
:101E800003F303F40043002B10D0234B1A883B6963
:101E90009BB2134498B2204B5A887B699BB213447F
:101EA0009BB2BA791946FFF745FF14E01A4B1A881E
:101EB0003B699BB2134498B2174B5A887B699BB21B
:101EC000134499B2BB79002B0CBF01230023DBB272
:101ED0001A46FFF72FFF3B6901333B613B681B78D4
:101EE0001A463B699342C8D37B6901337B613B68E7
:101EF0005B781A467B699342ADD3074B1A883B68DF
:101F00001B789BB213449AB2034B1A80FB79184694
:101F10001837BD4680BD00BF9805002080B584B04D
:101F200000AFF860B9601346FB7112E0FB681B78E4
:101F3000FA79B9681846FFF771FF03461A46FB683D
:101F40001B789A4202D0FB681B7808E0FB680133DB
:101F5000FB60FB681B78002BE8D1FB681B781846F8
:101F60001037BD4680BD80B500AF0020FFF7CAFE28
:101F7000FFF79AFE00BF80BD80B483B000AF074B6F
:101F80007B6002E07B68013B7B607B68002BF9D1C2
:101F900000BF00BF0C37BD4680BC704790D0030027
:101FA00090B5C7B002AF0446084607F58871A1F5A1
:101FB00088710A60194607F58873A3F2091322464F
:101FC0001A7007F58873A3F5857302461A7007F532
:101FD0008873A3F586730A461A8007F58873A3F5FC
:101FE000827307F58872A2F5857212781A70002341
:101FF00087F80F3115E097F80F3107F58872A2F5D1
:10200000887212681A4497F80F310133117807F576
:102010008872A2F58272D15497F80F31013387F894
:102020000F3197F80F319BB207F58872A2F58672CF
:1020300012889A42DFD807F58873A3F209131B7838
:1020400099B207F58873A3F586731B8801339BB299
:1020500007F10C020A200090034802F0B1FB00BF18
:1020600007F58A77BD4690BD6400002080B586B034
:1020700002AF0346FB710B46BB7113467B71BB7904
:102080003B737B797B73FB7999B207F10C020A23CE
:1020900000930223034802F093FB00BF1037BD46B4
:1020A00080BD00BF6400002080B400AFFEE780B4B4
:1020B00000AFFEE780B400AFFEE780B400AFFEE7FC
:1020C00080B400AFFEE780B400AF00BFBD4680BC67
:1020D000704780B400AF00BFBD4680BC704780B47D
:1020E00000AF00BFBD4680BC704780B500AF01F0B7
:1020F000AFF900BF80BD000080B500AF024800F01E
:102100009FFB00BF80BD00BF0001002080B485B0F0
:1021100000AF154B9B69144A43F001039361124BC6
:102120009B6903F00103BB60BB680F4BDB690E4A80
:1021300043F08053D3610C4BDB6903F080537B6029
:102140007B680A4B5B68FB60FB6823F0E063FB6025
:10215000FB6843F00073FB60044AFB68536000BFF8
:102160001437BD4680BC704700100240000001409B
:1021700080B588B000AF786007F1100300221A60C4
:102180005A609A60DA607B681B68144A934221D1D6
:10219000134B9B69124A43F400739361104B9B6984
:1021A00003F40073FB60FB680D4B9B690C4A43F022
:1021B000040393610A4B9B6903F00403BB60BB6893
:1021C00008233B6103237B6107F11003194605488F
:1021D00001F0EAFE00BF2037BD4680BD002401406B
:1021E000001002400008014080B58AB000AF78605E
:1021F00007F1140300221A605A609A60DA607B6863
:102200001B681D4A934232D11C4B9B691B4A43F009
:1022100008039361194B9B6903F008033B613B6919
:102220004FF440737B611223BB6103233B6207F1D0
:1022300014031946124801F0B7FE124B5B687B622B
:102240007B6A43F0E0637B627B6A43F002037B625C
:102250000C4A7B6A5360094BDB69084A43F400135C
:10226000D361064BDB6903F40013FB60FB6800BF1E
:102270002837BD4680BD00BF00540040001002401A
:10228000000C01400000014080B584B000AF7860D0
:102290007B681B68B3F1804F0CD1154BDB69144A86
:1022A00043F00103D361124BDB6903F00103FB60D0
:1022B000FB6818E07B681B680E4A934213D10C4BF5
:1022C000DB690B4A43F00403D361094BDB6903F07C
:1022D0000403BB60BB68002200211E2002F0EFF85F
:1022E0001E2002F008F900BF1037BD4680BD00BFB8
:1022F000001002400008004080B588B000AF786050
:1023000007F1100300221A605A609A60DA607B6855
:102310001B68B3F1804F17D10D4B9B690C4A43F0FA
:10232000040393610A4B9B6903F00403FB60FB68A1
:1023300006233B6102237B610223FB6107F110034B
:102340001946044801F030FE00BF2037BD4680BD6D
:10235000001002400008014080B582B000AF7860F4
:102360007B68002B01D1012341E07B6893F83D306D
:10237000DBB2002B06D17B68002283F83C20786812
:10238000FFF782FF7B68022283F83D207B681A6892
:102390007B6804331946104600F000FD7B6801227B
:1023A00083F846207B68012283F83E207B68012267
:1023B00083F83F207B68012283F840207B6801225C
:1023C00083F841207B68012283F842207B68012248
:1023D00083F843207B68012283F844207B68012234
:1023E00083F845207B68012283F83D2000231846AE
:1023F0000837BD4680BD000080B485B000AF78606E
:102400007B6893F83D30DBB2012B01D001233AE029
:102410007B68022283F83D207B681B68DA687B6852
:102420001B6842F00102DA607B681B68184A93421D
:102430000ED07B681B68B3F1804F09D07B681B68A6
:10244000144A934204D07B681B68134A934211D10B
:102450007B681B689B6803F00703FB60FB68062B27
:1024600010D07B681B681A687B681B6842F0010209
:102470001A6007E07B681B681A687B681B6842F07B
:1024800001021A60002318461437BD4680BC70470D
:10249000002C0140000400400008004080B483B0DC
:1024A00000AF78607B681B68DA687B681B6822F085
:1024B0000102DA607B681B681A6A41F2111313404B
:1024C000002B0FD17B681B681A6A40F2444313400B
:1024D000002B07D17B681B681A687B681B6822F099
:1024E00001021A607B68012283F83D200023184610
:1024F0000C37BD4680BC704780B582B000AF7860B5
:102500007B68002B01D1012341E07B6893F83D30CB
:10251000DBB2002B06D17B68002283F83C20786870
:1025200000F039F87B68022283F83D207B681A6846
:102530007B6804331946104600F030FC7B680122AA
:1025400083F846207B68012283F83E207B680122C5
:1025500083F83F207B68012283F840207B680122BA
:1025600083F841207B68012283F842207B680122A6
:1025700083F843207B68012283F844207B68012292
:1025800083F845207B68012283F83D20002318460C
:102590000837BD4680BD80B483B000AF786000BF0F
:1025A0000C37BD4680BC704780B584B000AF786002
:1025B00039603B68002B09D17B6893F83E30DBB271
:1025C000012B14BF01230023DBB222E03B68042B64
:1025D00009D17B6893F83F30DBB2012B14BF012394
:1025E0000023DBB215E03B68082B09D17B6893F828
:1025F0004030DBB2012B14BF01230023DBB208E023
:102600007B6893F84130DBB2012B14BF0123002318
:10261000DBB2002B01D001235EE03B68002B04D12C
:102620007B68022283F83E2013E03B68042B04D130
:102630007B68022283F83F200BE03B68082B04D123
:102640007B68022283F8402003E07B68022283F843
:1026500041207B681B6801223968184600F01EFE85
:102660007B681B681E4A934207D17B681B685A6CC3
:102670007B681B6842F400425A647B681B68184AF6
:1026800093420ED07B681B68B3F1804F09D07B6802
:102690001B68144A934204D07B681B68124A934219
:1026A00011D17B681B689B6803F00703FB60FB6824
:1026B000062B10D07B681B681A687B681B6842F089
:1026C00001021A6007E07B681B681A687B681B6858
:1026D00042F001021A60002318461037BD4680BD43
:1026E000002C0140000400400008004080B582B08A
:1026F00000AF786039603B680C2B41D801A252F8DA
:1027000023F000BF3927000881270008812700082F
:10271000812700084B27000881270008812700082F
:10272000812700085D27000881270008812700080D
:10273000812700086F2700087B681B68DA687B68C0
:102740001B6822F00202DA601BE07B681B68DA6813
:102750007B681B6822F00402DA6012E07B681B6869
:10276000DA687B681B6822F00802DA6009E07B689F
:102770001B68DA687B681B6822F01002DA6000E0F0
:1027800000BF7B681B6800223968184600F086FD90
:102790007B681B68294A934217D17B681B681A6AB9
:1027A00041F211131340002B0FD17B681B681A6A8A
:1027B00040F244431340002B07D17B681B685A6CDE
:1027C0007B681B6822F400425A647B681B681A6AA3
:1027D00041F211131340002B0FD17B681B681A6A5A
:1027E00040F244431340002B07D17B681B681A68F2
:1027F0007B681B6822F001021A603B68002B04D141
:102800007B68012283F83E2013E03B68042B04D14F
:102810007B68012283F83F200BE03B68082B04D142
:102820007B68012283F8402003E07B68012283F863
:102830004120002318460837BD4680BD002C0140CA
:1028400080B582B000AF78607B681B681B6903F0BD
:102850000203022B22D17B681B68DB6803F00203B2
:10286000022B1BD17B681B686FF002021A617B6828
:1028700001221A777B681B689B6903F00303002B16
:1028800003D0786800F06FFA05E0786800F062FA2B
:10289000786800F071FA7B6800221A777B681B6801
:1028A0001B6903F00403042B22D17B681B68DB68DF
:1028B00003F00403042B1BD17B681B686FF0040238
:1028C0001A617B6802221A777B681B689B6903F494
:1028D0004073002B03D0786800F045FA05E0786873
:1028E00000F038FA786800F047FA7B6800221A771F
:1028F0007B681B681B6903F00803082B22D17B68E7
:102900001B68DB6803F00803082B1BD17B681B687E
:102910006FF008021A617B6804221A777B681B68D3
:10292000DB6903F00303002B03D0786800F01BFA87
:1029300005E0786800F00EFA786800F01DFA7B6810
:1029400000221A777B681B681B6903F01003102BA9
:1029500022D17B681B68DB6803F01003102B1BD1AE
:102960007B681B686FF010021A617B6808221A7777
:102970007B681B68DB6903F44073002B03D0786825
:1029800000F0F1F905E0786800F0E4F9786800F00B
:10299000F3F97B6800221A777B681B681B6903F0D8
:1029A0000103012B0ED17B681B68DB6803F0010378
:1029B000012B07D17B681B686FF001021A617868F0
:1029C000FEF70CFC7B681B681B6903F08003802BFF
:1029D0000ED17B681B68DB6803F08003802B07D176
:1029E0007B681B686FF080021A61786800F0E1FC78
:1029F0007B681B681B6903F04003402B0ED17B688A
:102A00001B68DB6803F04003402B07D17B681B6821
:102A10006FF040021A61786800F0B7F97B681B68B4
:102A20001B6903F02003202B0ED17B681B68DB6839
:102A300003F02003202B07D17B681B686FF0200276
:102A40001A61786800F0ACFC00BF0837BD4680BD55
:102A500080B584B000AFF860B9607A60FB6893F825
:102A60003C30012B01D10223ACE0FB68012283F84A
:102A70003C207B680C2B00F29F8001A252F823F0CF
:102A8000B52A0008B92B0008B92B0008B92B00089B
:102A9000F52A0008B92B0008B92B0008B92B00084B
:102AA000372B0008B92B0008B92B0008B92B0008F8
:102AB000772B0008FB681B68B968184600F0D0F94E
:102AC000FB681B689A69FB681B6842F008029A6100
:102AD000FB681B689A69FB681B6822F004029A6114
:102AE000FB681B689969BB681A69FB681B680A4325
:102AF0009A6162E0FB681B68B968184600F016FA34
:102B0000FB681B689A69FB681B6842F400629A6163
:102B1000FB681B689A69FB681B6822F480629A61F3
:102B2000FB681B689969BB681B691A02FB681B6814
:102B30000A439A6141E0FB681B68B968184600F0D7
:102B40005FFAFB681B68DA69FB681B6842F00802E1
:102B5000DA61FB681B68DA69FB681B6822F0040213
:102B6000DA61FB681B68D969BB681A69FB681B6876
:102B70000A43DA6121E0FB681B68B968184600F077
:102B8000A9FAFB681B68DA69FB681B6842F40062FB
:102B9000DA61FB681B68DA69FB681B6822F48062F3
:102BA000DA61FB681B68D969BB681B691A02FB689C
:102BB0001B680A43DA6100E000BFFB68002283F86B
:102BC0003C20002318461037BD4680BD80B584B038
:102BD00000AF786039607B6893F83C30012B01D1FD
:102BE0000223B3E07B68012283F83C207B68022249
:102BF00083F83D207B681B689B68FB60FB6823F0C3
:102C00007703FB60FB6823F47F43FB607B681B68F2
:102C1000FA689A603B681B68B3F5005F3ED0B3F575
:102C2000005F00F28780B3F5805F00F08580B3F528
:102C3000805F7FD8702B1AD0702B7BD8602B50D040
:102C4000602B77D8502B3CD0502B73D8402B58D0CA
:102C5000402B6FD8302B64D0302B6BD8202B60D01A
:102C6000202B67D8002B5CD0102B5AD062E07B68F9
:102C700018683B6899683B685A683B68DB6800F0F5
:102C8000EEFA7B681B689B68FB60FB6843F0770388
:102C9000FB607B681B68FA689A604EE07B68186886
:102CA0003B6899683B685A683B68DB6800F0D7FA74
:102CB0007B681B689A687B681B6842F480429A6054
:102CC0003BE07B6818683B6859683B68DB681A46DC
:102CD00000F04EFA7B681B685021184600F0A5FAF8
:102CE0002BE07B6818683B6859683B68DB681A46CC
:102CF00000F06CFA7B681B686021184600F095FABA
:102D00001BE07B6818683B6859683B68DB681A46BB
:102D100000F02EFA7B681B684021184600F085FA07
:102D20000BE07B681A683B681B681946104600F088
:102D30007CFA02E000BF00E000BF7B68012283F85C
:102D40003D207B68002283F83C2000231846103782
:102D5000BD4680BD80B483B000AF786000BF0C3743
:102D6000BD4680BC704780B483B000AF786000BFC0
:102D70000C37BD4680BC704780B483B000AF78602C
:102D800000BF0C37BD4680BC704780B483B000AF35
:102D9000786000BF0C37BD4680BC704780B485B0FA
:102DA00000AF786039607B681B68FB607B68294AEC
:102DB00093420BD07B68B3F1804F07D07B68264AE3
:102DC000934203D07B68254A934208D1FB6823F0E5
:102DD0007003FB603B685B68FA681343FB607B68C9
:102DE0001C4A93420BD07B68B3F1804F07D07B68BD
:102DF000194A934203D07B68184A934208D1FB6872
:102E000023F44073FB603B68DB68FA681343FB60A4
:102E1000FB6823F080023B685B691343FB607B68BF
:102E2000FA681A603B689A687B68DA623B681A68DD
:102E30007B689A627B68074A934203D13B681A69B0
:102E40007B681A637B6801225A6100BF1437BD4654
:102E500080BC7047002C0140000400400008004086
:102E600080B487B000AF786039607B681B6A23F05C
:102E700001027B681A627B681B6A7B617B685B6806
:102E80003B617B689B69FB60FB6823F07003FB6020
:102E9000FB6823F00303FB603B681B68FA6813437D
:102EA000FB607B6923F002037B613B689B687A6966
:102EB00013437B617B681C4A93420CD17B6923F0EE
:102EC00008037B613B68DB687A6913437B617B693C
:102ED00023F004037B617B68134A934211D13B6961
:102EE00023F480733B613B6923F400733B613B68CF
:102EF0005B693A6913433B613B689B693A691343D9
:102F00003B617B683A695A607B68FA689A613B6802
:102F10005A687B685A637B687A691A6200BF1C37FB
:102F2000BD4680BC704700BF002C014080B487B014
:102F300000AF786039607B681B6A23F010027B6801
:102F40001A627B681B6A7B617B685B683B617B689C
:102F50009B69FB60FB6823F4E043FB60FB6823F4A0
:102F60004073FB603B681B681B02FA681343FB60FD
:102F70007B6923F020037B613B689B681B017A69B6
:102F800013437B617B681D4A93420DD17B6923F01B
:102F900080037B613B68DB681B017A6913437B61BB
:102FA0007B6923F040037B617B68144A934213D111
:102FB0003B6923F480633B613B6923F400633B611D
:102FC0003B685B699B003A6913433B613B689B69C3
:102FD0009B003A6913433B617B683A695A607B689E
:102FE000FA689A613B685A687B689A637B687A6979
:102FF0001A6200BF1C37BD4680BC7047002C0140E0
:1030000080B487B000AF786039607B681B6A23F4B6
:1030100080727B681A627B681B6A7B617B685B6875
:103020003B617B68DB69FB60FB6823F07003FB603E
:10303000FB6823F00303FB603B681B68FA681343DB
:10304000FB607B6923F400737B613B689B681B0218
:103050007A6913437B617B681D4A93420DD17B697A
:1030600023F400637B613B68DB681B027A691343CE
:103070007B617B6923F480637B617B68144A9342A4
:1030800013D13B6923F480533B613B6923F4005324
:103090003B613B685B691B013A6913433B613B68D9
:1030A0009B691B013A6913433B617B683A695A602B
:1030B0007B68FA68DA613B685A687B68DA637B6828
:1030C0007A691A6200BF1C37BD4680BC704700BFDA
:1030D000002C014080B487B000AF786039607B6815
:1030E0001B6A23F480527B681A627B681B6A3B610F
:1030F0007B685B687B617B68DB69FB60FB6823F452
:10310000E043FB60FB6823F44073FB603B681B6893
:103110001B02FA681343FB603B6923F400533B61D5
:103120003B689B681B033A6913433B617B680F4A0A
:10313000934209D17B6923F480437B613B685B69DF
:103140009B017A6913437B617B687A695A607B686B
:10315000FA68DA613B685A687B681A647B683A6986
:103160001A6200BF1C37BD4680BC7047002C01406E
:1031700080B487B000AFF860B9607A60FB681B6A02
:103180007B61FB681B6A23F00102FB681A62FB6823
:103190009B693B613B6923F0F0033B617B681B014A
:1031A0003A6913433B617B6923F00A037B617A69C7
:1031B000BB6813437B61FB683A699A61FB687A6973
:1031C0001A6200BF1C37BD4680BC704780B487B010
:1031D00000AFF860B9607A60FB681B6A23F01002E8
:1031E000FB681A62FB689B697B61FB681B6A3B6139
:1031F0007B6923F470437B617B681B037A6913430B
:103200007B613B6923F0A0033B61BB681B013A690A
:1032100013433B61FB687A699A61FB683A691A62F9
:1032200000BF1C37BD4680BC704780B485B000AF7E
:10323000786039607B689B68FB60FB6823F07003F3
:10324000FB603A68FB68134343F00703FB607B684D
:10325000FA689A6000BF1437BD4680BC704780B4DE
:1032600087B000AFF860B9607A603B60FB689B682C
:103270007B617B6923F47F437B613B681A027B6837
:103280001A43BB6813437A6913437B61FB687A690D
:103290009A6000BF1C37BD4680BC704780B487B0C1
:1032A00000AFF860B9607A60BB6803F01F030122C9
:1032B00002FA03F37B61FB681A6A7B69DB431A40FD
:1032C000FB681A62FB681A6ABB6803F01F0379681F
:1032D00001FA03F31A43FB681A6200BF1C37BD46AC
:1032E00080BC704780B485B000AF786039607B687F
:1032F00093F83C30012B01D1022346E07B68012288
:1033000083F83C207B68022283F83D207B681B68A1
:103310005B68FB607B681B689B68BB60FB6823F095
:103320007003FB603B681B68FA681343FB607B68B3
:103330001B68FA685A607B681B68164A93420ED075
:103340007B681B68B3F1804F09D07B681B68124A09
:10335000934204D07B681B68104A93420CD1BB682F
:1033600023F08003BB603B685B68BA681343BB60B3
:103370007B681B68BA689A607B68012283F83D20ED
:103380007B68002283F83C20002318461437BD4692
:1033900080BC7047002C0140000400400008004041
:1033A00080B483B000AF786000BF0C37BD4680BCEE
:1033B000704780B483B000AF786000BF0C37BD4663
:1033C00080BC704780B500AF084B1B68074A43F0CC
:1033D00010031360032001F067F8002000F008F8E4
:1033E000FEF794FE0023184680BD00BF0020024077
:1033F00080B582B000AF7860124B1A68124B1B7810
:1034000019464FF47A73B3FBF1F3B2FBF3F31846AA
:1034100001F07FF80346002B01D001230EE07B680A
:103420000F2B0AD8002279684FF0FF3001F047F8DF
:10343000064A7B681360002300E001231846083722
:10344000BD4680BD14000020100000200C000020AC
:1034500080B400AF054B1B781A46054B1B6813441C
:10346000034A136000BFBD4680BC704710000020B7
:10347000A005002080B400AF024B1B681846BD4673
:1034800080BC7047A005002080B586B000AF786092
:103490007B68002B01D1012372E27B681B6803F07B
:1034A0000103002B00F08780924B5B6803F00C0354
:1034B000042B0CD08F4B5B6803F00C03082B12D14C
:1034C0008C4B5B6803F48033B3F5803F0BD1894BA1
:1034D0001B6803F40033002B6CD07B685B68002B07
:1034E00068D101234CE27B685B68B3F5803F06D16D
:1034F000804B1B687F4A43F4803313602EE07B6867
:103500005B68002B0CD17B4B1B687A4A23F4803319
:103510001360784B1B68774A23F4802313601DE007
:103520007B685B68B3F5A02F0CD1724B1B68714AA6
:1035300043F4802313606F4B1B686E4A43F480335F
:1035400013600BE06B4B1B686A4A23F480331360F3
:10355000684B1B68674A23F4802313607B685B68B1
:10356000002B13D0FFF786FF386108E0FFF782FFDA
:1035700002463B69D31A642B01D9032300E25D4B59
:103580001B6803F40033002BF0D014E0FFF772FF48
:10359000386108E0FFF76EFF02463B69D31A642BDF
:1035A00001D90323ECE1534B1B6803F40033002BD8
:1035B000F0D100E000BF7B681B6803F00203002B22
:1035C00063D04C4B5B6803F00C03002B0BD0494BD2
:1035D0005B6803F00C03082B1CD1464B5B6803F4BB
:1035E0008033002B16D1434B1B6803F00203002BE2
:1035F00005D07B681B69012B01D00123C0E13D4B45
:103600001B6823F0F8027B685B69DB0039491343D0
:103610000B603AE07B681B69002B20D0364B0122FF
:103620001A60FFF727FF386108E0FFF723FF024623
:103630003B69D31A022B01D90323A1E12D4B1B684F
:1036400003F00203002BF0D02A4B1B6823F0F80292
:103650007B685B69DB00274913430B6015E0264B51
:1036600000221A60FFF706FF386108E0FFF702FF4B
:1036700002463B69D31A022B01D9032380E11D4B7B
:103680001B6803F00203002BF0D17B681B6803F07A
:103690000803002B3AD07B689B69002B19D0174B8D
:1036A00001221A60FFF7E6FE386108E0FFF7E2FE4C
:1036B00002463B69D31A022B01D9032360E10D4B6B
:1036C0005B6A03F00203002BF0D0012000F0D8FA6F
:1036D0001CE00A4B00221A60FFF7CCFE38610FE0B5
:1036E000FFF7C8FE02463B69D31A022B08D9032311
:1036F00046E100BF00100240000042428004424206
:10370000924B5B6A03F00203002BE9D17B681B68D4
:1037100003F00403002B00F0A6800023FB758B4B05
:10372000DB6903F08053002B0DD1884BDB69874A9E
:1037300043F08053D361854BDB6903F08053BB605A
:10374000BB680123FB75824B1B6803F48073002B5D
:1037500018D17F4B1B687E4A43F480731360FFF7D8
:1037600089FE386108E0FFF785FE02463B69D31AFF
:10377000642B01D9032303E1754B1B6803F48073A9
:10378000002BF0D07B68DB68012B06D16F4B1B6AE6
:103790006E4A43F0010313622DE07B68DB68002B67
:1037A0000CD16A4B1B6A694A23F001031362674B11
:1037B0001B6A664A23F0040313621CE07B68DB6823
:1037C000052B0CD1614B1B6A604A43F00403136262
:1037D0005E4B1B6A5D4A43F0010313620BE05B4BD7
:1037E0001B6A5A4A23F001031362584B1B6A574A5B
:1037F00023F0040313627B68DB68002B15D0FFF70E
:1038000039FE38610AE0FFF735FE02463B69D31AFC
:1038100041F28832934201D90323B1E04B4B1B6A3A
:1038200003F00203002BEED014E0FFF723FE386113
:103830000AE0FFF71FFE02463B69D31A41F28832C5
:10384000934201D903239BE0404B1B6A03F0020320
:10385000002BEED1FB7D012B05D13C4BDB693B4AB4
:1038600023F08053D3617B68DB69002B00F08780F5
:10387000364B5B6803F00C03082B61D07B68DB6977
:10388000022B46D1334B00221A60FFF7F3FD38615B
:1038900008E0FFF7EFFD02463B69D31A022B01D97E
:1038A00003236DE0294B1B6803F00073002BF0D15C
:1038B0007B681B6AB3F5803F08D1244B5B6823F417
:1038C00000327B689B68214913434B601F4B5B6848
:1038D00023F474127B68196A7B685B6A0B431B498B
:1038E00013434B601B4B01221A60FFF7C3FD386185
:1038F00008E0FFF7BFFD02463B69D31A022B01D94E
:1039000003233DE0114B1B6803F00073002BF0D044
:1039100035E0104B00221A60FFF7ACFD386108E07B
:10392000FFF7A8FD02463B69D31A022B01D90323F6
:1039300026E0064B1B6803F00073002BF0D11EE05D
:103940007B68DB69012B07D1012319E000100240DD
:1039500000700040600042420B4B5B68FB60FB68FC
:1039600003F480327B681B6A9A4206D1FB6803F439
:1039700070127B685B6A9A4201D0012300E0002349
:1039800018461837BD4680BD0010024080B584B08F
:1039900000AF786039607B68002B01D10123D0E053
:1039A0006A4B1B6803F007033A689A4210D9674BC9
:1039B0001B6823F0070265493B6813430B60634BA8
:1039C0001B6803F007033A689A4201D00123B8E06C
:1039D0007B681B6803F00203002B20D07B681B6808
:1039E00003F00403002B05D0594B5B68584A43F49D
:1039F000E06353607B681B6803F00803002B05D06D
:103A0000534B5B68524A43F460535360504B5B68BE
:103A100023F0F0027B689B684D4913434B607B6841
:103A20001B6803F00103002B40D07B685B68012B0F
:103A300007D1474B1B6803F40033002B15D101233A
:103A40007FE07B685B68022B07D1414B1B6803F06A
:103A50000073002B09D1012373E03D4B1B6803F079
:103A60000203002B01D101236BE0394B5B6823F08B
:103A700003027B685B68364913434B60FFF7FAFC2F
:103A8000F8600AE0FFF7F6FC0246FB68D31A41F241
:103A90008832934201D9032353E02D4B5B6803F036
:103AA0000C027B685B689B009A42EBD1274B1B683A
:103AB00003F007033A689A4210D2244B1B6823F0A4
:103AC000070222493B6813430B60204B1B6803F03D
:103AD00007033A689A4201D0012332E07B681B68F1
:103AE00003F00403002B08D0194B5B6823F4E06259
:103AF0007B68DB68164913434B607B681B6803F0E7
:103B00000803002B09D0124B5B6823F460527B68DA
:103B10001B69DB000E4913434B6000F021F802469D
:103B20000B4B5B681B0903F00F030A49CB5C22FABD
:103B300003F3094A1360094B1B681846FFF758FC4A
:103B4000002318461037BD4680BD00BF002002404C
:103B500000100240C4610008140000200C00002086
:103B600090B48AB000AF294B3C1D0FCB84E80F0006
:103B700040F201233B800023FB610023BB61002353
:103B80007B6200237B6100233B62214B5B68FB610E
:103B9000FB6903F00C03042B02D0082B03D02BE0AD
:103BA0001C4B3B622BE0FB699B0C03F00F0328339B
:103BB0003B4413F8243C7B61FB6903F48033002B06
:103BC00012D0134B5B685B0C03F0010328333B44BA
:103BD00013F8283CBB617B690E4A03FB02F2BB6908
:103BE000B2FBF3F37B6204E07B690B4A02FB03F355
:103BF0007B627B6A3B6202E0064B3B6200BF3B6A32
:103C000018462837BD4690BC704700BF385A000898
:103C10000010024000127A0000093D0080B400AF9D
:103C2000024B1B681846BD4680BC7047140000203C
:103C300080B500AFFFF7F2FF0246054B5B681B0A39
:103C400003F007030349CB5C22FA03F3184680BD57
:103C500000100240D461000880B500AFFFF7DEFF1E
:103C60000246054B5B68DB0A03F007030349CB5CA4
:103C700022FA03F3184680BD00100240D461000808
:103C800080B485B000AF78600A4B1B680A4AA2FB7B
:103C900003235B0A7A6802FB03F3FB6000BFFB6847
:103CA0005A1EFA60002BF9D100BF00BF1437BD4681
:103CB00080BC704714000020D34D621080B586B0E0
:103CC00000AF786000233B610023FB607B681B68CA
:103CD00003F00103002B7DD00023FB754F4BDB6904
:103CE00003F08053002B0DD14C4BDB694B4A43F062
:103CF0008053D361494BDB6903F08053BB60BB68E1
:103D00000123FB75464B1B6803F48073002B18D10D
:103D1000434B1B68424A43F480731360FFF7AAFBCE
:103D2000386108E0FFF7A6FB02463B69D31A642B13
:103D300001D903236DE03A4B1B6803F48073002B19
:103D4000F0D0364B1B6A03F44073FB60FB68002B1A
:103D50002ED07B685B6803F44073FA689A4227D0E0
:103D60002E4B1B6A23F44073FB602E4B01221A601A
:103D70002C4B00221A60294AFB681362FB6803F08F
:103D80000103002B14D0FFF775FB38610AE0FFF741
:103D900071FB02463B69D31A41F28832934201D942
:103DA000032336E01D4B1B6A03F00203002BEED009
:103DB0001A4B1B6A23F440727B685B6817491343F4
:103DC0000B62FB7D012B05D1144BDB69134A23F0F9
:103DD0008053D3617B681B6803F00203002B08D07B
:103DE0000E4B5B6823F440427B689B680B4913438E
:103DF0004B607B681B6803F01003002B08D0074B57
:103E00005B6823F480027B68DB68044913434B60E2
:103E1000002318461837BD4680BD00BF0010024081
:103E2000007000404004424290B58DB000AF786011
:103E3000584B07F10C040FCB84E80F0040F201232C
:103E40003B8100237B620023FB6200233B62002353
:103E5000FB610023BB627B68102B0AD07B68102BB0
:103E600000F28E807B68012B49D07B68022B79D0D1
:103E700086E0494B5B68FB61474B1B6803F080732E
:103E8000002B7FD0FB699B0C03F00F0330333B44C6
:103E900013F8243C3B62FB6903F48033002B17D0FA
:103EA0003D4B5B685B0C03F0010330333B4413F87C
:103EB000283C7B62FB6903F48033002B0DD0374A2A
:103EC0007B6AB2FBF3F23B6A02FB03F3FB6204E0A2
:103ED0003B6A334A02FB03F3FB622F4B5B6803F43C
:103EE0008003B3F5800F02D1FB6ABB624AE0FB6A34
:103EF0005B002C4AA2FB03235B08BB6242E0264B1B
:103F00001B6AFB61FB6903F44073B3F5807F08D142
:103F1000FB6903F00203002B03D04FF40043BB62A4
:103F20001FE0FB6903F44073B3F5007F09D11A4B1E
:103F30005B6A03F00203002B03D049F64043BB62E7
:103F40000FE0FB6903F44073B3F5407F1CD1124BC3
:103F50001B6803F40033002B16D04FF22443BB62DE
:103F600012E011E0FFF778FE02460B4B5B689B0BFB
:103F700003F0030301335B00B2FBF3F3BB6204E025
:103F800000BF02E000BF00E000BFBB6A1846343744
:103F9000BD4690BD485A00080010024000127A0049
:103FA00000093D00ABAAAAAA80B48BB000AF78602C
:103FB000396000237B6200233B6269E101227B6A56
:103FC00002FA03F3FB613B681B68FA691340BB61AB
:103FD000BA69FB699A4240F058813B685B689A4A2B
:103FE00093425ED0984A934275D8984A934258D0EB
:103FF000964A93426FD8964A934252D0944A93423B
:1040000069D8944A93424CD0924A934263D8924AD8
:10401000934246D0904A93425DD8122B2AD8122B55
:1040200059D801A252F823F0A34000087D400008AF
:104030008F400008D1400008D7400008D740000852
:10404000D7400008D7400008D7400008D7400008F4
:10405000D7400008D7400008D7400008D7400008E4
:10406000D7400008D7400008D74000088540000826
:1040700099400008794A934213D02CE03B68DB68F2
:104080003B6229E03B68DB6804333B6224E03B6829
:10409000DB6808333B621FE03B68DB680C333B6244
:1040A0001AE03B689B68002B02D104233B6213E0BB
:1040B0003B689B68012B05D108233B627B68FA694A
:1040C0001A6109E008233B627B68FA695A6103E0E0
:1040D00000233B6200E000BFBB69FF2B01D87B6877
:1040E00001E07B6804337B61BB69FF2B02D87B6AEC
:1040F0009B0002E07B6A083B9B003B617B691A687E
:104100000F213B6901FA03F3DB431A40396A3B692B
:1041100001FA03F31A437B691A603B685B6803F09A
:104120008053002B00F0B1804D4B9B694C4A43F00B
:10413000010393614A4B9B6903F00103BB60BB68B9
:10414000484A7B6A9B08023352F82330FB607B6A43
:1041500003F003039B000F2202FA03F3DB43FA6828
:104160001340FB607B68404A934213D07B683F4A10
:1041700093420DD07B683E4A934207D07B683D4A0C
:10418000934201D1032306E0042304E0022302E06A
:10419000012300E000237A6A02F0030292009340B8
:1041A000FA681343FB602F497B6A9B080233FA6865
:1041B00041F823203B685B6803F48033002B06D072
:1041C0002D4B1A682C49BB6913430B6006E02A4B40
:1041D0001A68BB69DB43284913400B603B685B6886
:1041E00003F40033002B06D0234B5A682249BB69E5
:1041F00013434B6006E0204B5A68BB69DB431E4902
:1042000013404B603B685B6803F48013002B06D0BF
:10421000194B9A681849BB6913438B6006E0164B2B
:104220009A68BB69DB43144913408B603B685B6849
:1042300003F40013002B21D00F4BDA680E49BB6941
:104240001343CB6021E000BF0000321000003110AA
:1042500000002210000021100000121000001110B8
:10426000001002400000014000080140000C014025
:104270000010014000140140000401400B4BDA68BB
:10428000BB69DB4309491340CB607B6A01337B6226
:104290003B681A687B6A22FA03F3002B7FF48EAE28
:1042A00000BF00BF2C37BD4680BC704700040140F2
:1042B00080B485B000AF78600B467B807B689A68DD
:1042C0007B881340002B02D00123FB7301E0002305
:1042D000FB73FB7B18461437BD4680BC704780B427
:1042E00083B000AF78600B467B8013467B707B7891
:1042F000002B03D07A887B681A6103E07B881A045C
:104300007B681A6100BF0C37BD4680BC7047000057
:1043100080B485B000AF78607B6803F00703FB6072
:104320000C4BDB68BB60BA684FF6FF031340BB6001
:10433000FB681A02BB68134343F0BF6343F40033C6
:10434000BB60044ABB68D36000BF1437BD4680BC65
:10435000704700BF00ED00E080B400AF044BDB68A5
:104360001B0A03F007031846BD4680BC704700BF18
:1043700000ED00E080B483B000AF0346FB7197F915
:104380000730002B0BDBFB7903F01F02064997F97E
:1043900007305B09012000FA02F241F8232000BF38
:1043A0000C37BD4680BC704700E100E080B483B0AC
:1043B00000AF03463960FB7197F90730002B0ADB29
:1043C0003B68DAB20C4997F907301201D2B20B44BC
:1043D00083F800230AE03B68DAB20849FB7903F06E
:1043E0000F03043B1201D2B20B441A7600BF0C3704
:1043F000BD4680BC704700BF00E100E000ED00E07A
:1044000080B489B000AFF860B9607A60FB6803F0EF
:104410000703FB61FB69C3F10703042B28BF0423D7
:10442000BB61FB690433062B02D9FB69033B00E047
:1044300000237B614FF0FF32BB6902FA03F3DA43DA
:10444000BB681A407B699A404FF0FF317B6901FAE3
:1044500003F3D9437B680B40134318462437BD460A
:1044600080BC704780B582B000AF78607B68013B4C
:10447000B3F1807F01D301230FE00A4A7B68013B3F
:1044800053600F214FF0FF30FFF790FF054B0022E4
:104490009A60044B07221A60002318460837BD466D
:1044A00080BD00BF10E000E080B582B000AF786052
:1044B0007868FFF72DFF00BF0837BD4680BD80B587
:1044C00086B000AF0346B9607A60FB7300237B615E
:1044D000FFF742FF78617A68B9687869FFF790FF63
:1044E000024697F90F3011461846FFF75FFF00BFED
:1044F0001837BD4680BD80B582B000AF0346FB7162
:1045000097F907301846FFF735FF00BF0837BD465B
:1045100080BD80B582B000AF78607868FFF7A2FFF9
:10452000034618460837BD4680BD80B400AF00BFC3
:10453000BD4680BC7047000080B584B000AF786095
:104540007B68002B01D101232BE17B6893F83D3080
:10455000DBB2002B06D17B68002283F83C20786810
:10456000FDF742FE7B68242283F83D207B681B68B0
:104570001A687B681B6822F001021A607B681B685E
:104580001A687B681B6842F400421A607B681B68EB
:104590001A687B681B6822F400421A60FFF748FB28
:1045A000F8607B685B68814A934207D8FB68804A61
:1045B000934294BF01230023DBB206E0FB687D4AEF
:1045C000934294BF01230023DBB2002B01D00123CF
:1045D000E7E0FB68784AA2FB03239B0CBB607B6887
:1045E0001B685B6823F03F017B681B68BA680A435D
:1045F0005A607B681B681B6A23F03F017B685B681D
:104600006A4A934202D8BB68013309E0BB684FF4A1
:10461000967202FB03F3694AA2FB03239B09013351
:104620007A6812680B4313627B681B68DB6923F4AA
:104630004F4222F0FF027B685B685C498B4219D8CD
:10464000FB68591E7B685B685B00B1FBF3F3591C88
:1046500040F6FC730B40002B0AD0FB68591E7B68A8
:104660005B685B00B1FBF3F30133C3F30B0351E071
:1046700004234FE07B689B68002B11D1FB68581E18
:104680007B6859680B465B000B44B0FBF3F30133C6
:10469000C3F30B03002B0CBF01230023DBB212E09A
:1046A000FB68581E7B6859680B469B000B449900B9
:1046B0000B44B0FBF3F30133C3F30B03002B0CBF2C
:1046C00001230023DBB2002B01D0012322E07B6811
:1046D0009B68002B0ED1FB68581E7B6859680B46FF
:1046E0005B000B44B0FBF3F30133C3F30B0343F460
:1046F00000430FE0FB68581E7B6859680B469B001F
:104700000B4499000B44B0FBF3F30133C3F30B03E9
:1047100043F44043796809681343CB617B681B68A5
:104720001B6823F0C0017B68DA697B681B6A1A4347
:104730007B681B680A431A607B681B689B6823F4CC
:10474000034323F0FF037A6811697A68D268114342
:104750007A6812680B4393607B681B68DB6823F000
:10476000FF017B685A697B689B691A437B681B68F9
:104770000A43DA607B681B681A687B681B6842F032
:1047800001021A607B6800221A647B68202283F889
:104790003D207B6800221A637B68002283F83E205C
:1047A000002318461037BD4680BD00BFA08601001B
:1047B0007F841E00FF083D0083DE1B43D34D621043
:1047C00080B588B002AFF8607A601A460B467B81EC
:1047D00013463B81FEF74EFE7861FB6893F83D304F
:1047E000DBB2202B40F0E0807B690093192301228B
:1047F0007049F86800F092FA0346002B01D00223BA
:10480000D3E0FB6893F83C30012B01D10223CCE0CC
:10481000FB68012283F83C20FB681B681B6803F0DF
:104820000103012B07D0FB681B681A68FB681B6833
:1048300042F001021A60FB681B681A68FB681B687B
:1048400022F400621A60FB68212283F83D20FB6895
:10485000102283F83E20FB6800221A64FB687A6805
:104860005A62FB683A895A85FB685B8D9AB2FB688D
:104870001A85FB68504ADA6279897B693A6AF86876
:1048800000F0CAF90346002B01D001238DE000237C
:104890003B61FB681B685B693B61FB681B689B694C
:1048A0003B613B6966E07A69396AF86800F00CFBA5
:1048B0000346002B0DD0FB681B6C042B07D1FB6853
:1048C0001B681A68FB681B6842F400721A600123B7
:1048D0006BE0FB685B6A1A78FB681B681A61FB680F
:1048E0005B6A5A1CFB685A62FB685B8D9BB2013B9A
:1048F0009AB2FB685A85FB681B8D013B9AB2FB6834
:104900001A85FB681B685B6903F00403042B1BD149
:10491000FB681B8D002B17D0FB685B6A1A78FB685D
:104920001B681A61FB685B6A5A1CFB685A62FB6869
:104930005B8D9BB2013B9AB2FB685A85FB681B8D6D
:10494000013B9AB2FB681A857A69396AF86800F007
:10495000FCFA0346002B0DD0FB681B6C042B07D11F
:10496000FB681B681A68FB681B6842F400721A60D7
:1049700001231AE0FB681B8D002B94D1FB681B6898
:104980001A68FB681B6842F400721A60FB682022F8
:1049900083F83D20FB68002283F83E20FB6800225C
:1049A00083F83C20002300E0022318461837BD4658
:1049B00080BD00BF020010000000FFFF80B58AB07C
:1049C00002AFF8607A603B600B467B81FEF752FDD8
:1049D000F8610123BB61FB6893F83D30DBB2202B0B
:1049E00040F01181FB690093192301228849F8687E
:1049F00000F094F90346002B01D0022304E1FB6888
:104A000093F83C30012B01D10223FDE0FB68012229
:104A100083F83C20FB681B681B6803F00103012B33
:104A200007D0FB681B681A68FB681B6842F001022C
:104A30001A60FB681B681A68FB681B6822F4006236
:104A40001A60FB68242283F83D20FB6800221A6468
:104A5000FB68704ADA62FB681B681A68FB681B68AF
:104A600042F480721A60FB6900933B6800224FF0A9
:104A70000111F86800F052F90346002B0DD0FB68D5
:104A80001B681B6803F48073B3F5807F03D1FB6858
:104A90004FF400721A640323B6E07B89DBB21A4636
:104AA000FB681B6802F0FE021A61FEF7E3FCF86186
:104AB000FB681B685B6903F00203022B0CBF012338
:104AC0000023DBB2FB75FB681B685B6903F4806342
:104AD000B3F5806F0CBF01230023DBB2BB7525E06B
:104AE000FEF7C8FC0246FB69D31A3A689A4202D321
:104AF0003B68002B03D1FB68A02283F83D20FB68B4
:104B00001B685B6903F00203022B0CBF0123002327
:104B1000DBB2FB75FB681B685B6903F48063B3F56C
:104B2000806F0CBF01230023DBB2BB75FB6893F8D9
:104B30003D30DBB2A02B05D0FB7D002B02D1BB7D2D
:104B4000002BCDD0FB68202283F83D20FB681B683A
:104B50005B6903F00203022B29D1FB681B681A680A
:104B6000FB681B6842F400721A6000233B61FB681B
:104B70001B685B693B61FB681B689B693B613B6928
:104B8000FB690093192301222149F86800F0C6F857
:104B90000346002B01D0012336E0FB68202283F876
:104BA0003D20FB68002283F83C2000232CE0FB68BA
:104BB0001B681A68FB681B6842F400721A60FB6885
:104BC0001B686FF480625A61FB690093192301220C
:104BD0000F49F86800F0A2F80346002B01D001232A
:104BE00012E0BB690133BB61BA697B689A42FFF48A
:104BF00032AFFB68202283F83D20FB68002283F857
:104C00003C20012300E0022318462037BD4680BD2A
:104C1000020010000000FFFF80B588B002AFF8600E
:104C20007A603B600B467B81FB68DB6A7B617B695A
:104C3000082B06D07B69012B03D07B6913F5803FDD
:104C400008D1FB681B681A68FB681B6842F4807215
:104C50001A600BE0FB681B6B122B07D1FB681B680B
:104C60001A68FB681B6842F480721A603B68009304
:104C70007B6800224FF00111F86800F04FF80346FE
:104C8000002B0DD0FB681B681B6803F48073B3F521
:104C9000807F03D1FB684FF400721A64032335E070
:104CA000FB681B69B3F5804F08D17B89DBB21A46DC
:104CB000FB681B6802F0FE021A611BE07B89DB11B6
:104CC000DBB203F00603DBB263F00F03DAB2FB687A
:104CD0001B681A613B687A680E49F86800F075F83D
:104CE0000346002B01D0012310E07B89DAB2FB6878
:104CF0001B681A613B687A680749F86800F065F834
:104D00000346002B01D0012300E00023184618378A
:104D1000BD4680BD080001000200010080B584B0DE
:104D200000AFF860B9603B601346FB7125E03B685B
:104D3000B3F1FF3F21D0FEF79DFB0246BB69D31ABA
:104D40003A689A4202D33B68002B16D1FB680022D6
:104D50001A63FB68202283F83D20FB68002283F859
:104D60003E20FB681B6C43F02002FB681A64FB6862
:104D7000002283F83C20012323E0BB681B0CDBB23C
:104D8000012B0DD1FB681B685B69DA43BB681340DC
:104D90009BB2002B0CBF01230023DBB21A460CE0B0
:104DA000FB681B689B69DA43BB6813409BB2002B0E
:104DB0000CBF01230023DBB21A46FB799A42B6D01E
:104DC000002318461037BD4680BD80B584B000AFC3
:104DD000F860B9607A603B6051E0FB681B685B6912
:104DE00003F48063B3F5806F23D1FB681B681A68F6
:104DF000FB681B6842F400721A60FB681B686FF462
:104E000080625A61FB6800221A63FB68202283F8E3
:104E10003D20FB68002283F83E20FB681B6C43F0BA
:104E20000402FB681A64FB68002283F83C2001231B
:104E300046E07B68B3F1FF3F21D0FEF71BFB024643
:104E40003B68D31A7A689A4202D37B68002B16D14A
:104E5000FB6800221A63FB68202283F83D20FB6870
:104E6000002283F83E20FB681B6C43F02002FB68A5
:104E70001A64FB68002283F83C20012320E0BB6811
:104E80001B0CDBB2012B0CD1FB681B685B69DA439E
:104E9000BB6813409BB2002B14BF01230023DBB27D
:104EA0000BE0FB681B689B69DA43BB6813409BB24D
:104EB000002B14BF01230023DBB2002B8DD1002374
:104EC00018461037BD4680BD80B584B000AFF8608D
:104ED000B9607A602DE0F86800F078F80346002B9E
:104EE00001D001232DE0BB68B3F1FF3F21D0FEF7D5
:104EF000C1FA02467B68D31ABA689A4202D3BB68E9
:104F0000002B16D1FB6800221A63FB68202283F86D
:104F10003D20FB68002283F83E20FB681B6C43F0B9
:104F20002002FB681A64FB68002283F83C200123FE
:104F300007E0FB681B685B6903F08003802BCAD124
:104F4000002318461037BD4680BD80B584B000AF41
:104F5000F860B9607A602DE0F86800F037F8034631
:104F6000002B01D001232DE0BB68B3F1FF3F21D01E
:104F7000FEF780FA02467B68D31ABA689A4202D3D7
:104F8000BB68002B16D1FB6800221A63FB68202245
:104F900083F83D20FB68002283F83E20FB681B6CF1
:104FA00043F02002FB681A64FB68002283F83C206F
:104FB000012307E0FB681B685B6903F00403042B13
:104FC000CAD1002318461037BD4680BD80B483B0D7
:104FD00000AF78607B681B685B6903F48063B3F59E
:104FE000806F1BD17B681B686FF480625A617B689D
:104FF00000221A637B68202283F83D207B68002210
:1050000083F83E207B681B6C43F004027B681A64C3
:105010007B68002283F83C20012300E0002318462F
:105020000C37BD4680BC704780B586B000AF786055
:105030000023FB7500233B610023BB600023FB6062
:105040007B68002B01D10123BEE07B689B68002BAD
:105050007B689B6A002B09D17B680022DA627B683F
:10506000002283F824207868FDF782F8786800F041
:10507000C5FB0346FB757B689B6A03F01003002B9E
:1050800040F09980FB7D002B40F095807B689B6A07
:1050900023F4885323F0020343F002027B689A62F0
:1050A0007B685A687B68DB691A437B681B7B5B0003
:1050B0001343BA681343BB607B689B68B3F5807F7A
:1050C00003D07B689B68012B02D14FF4807300E012
:1050D00000233A6913433B617B681B7D012B19D187
:1050E0007B681B7B002B09D17B689B69013B5A03C2
:1050F0003B69134343F400633B610BE07B689B6AAD
:1051000043F020027B689A627B68DB6A43F001020D
:105110007B68DA627B681B685B6823F469417B68A3
:105120001B683A690A435A607B681B689A68284B77
:1051300013407A681268B9680B4393607B689B6878
:10514000B3F5807F03D07B689B68012B04D17B681B
:105150001B69013B1B05FB607B681B68DB6A23F452
:1051600070017B681B68FA680A43DA627B681B6817
:105170009A68184B1340BA689A420BD17B68002298
:10518000DA627B689B6A23F0030343F001027B68C9
:105190009A6218E07B689B6A23F0120343F01002C6
:1051A0007B689A627B68DB6A43F001027B68DA62A3
:1051B0000123FB7507E07B689B6A43F010027B6864
:1051C0009A620123FB75FB7D18461837BD4680BDEA
:1051D000FDF7E1FFFE0E1FFF80B584B000AF7860E1
:1051E0000023FB737B6893F82430012B01D1022349
:1051F00098E07B68012283F82420786800F0A4FA04
:105200000346FB73FB7B002B40F087807B689B6A27
:1052100023F4407323F0010343F480727B689A62A5
:105220007B681B68414A934205D1414B5B6803F49C
:105230007023002B15D17B689B6A23F480127B6856
:105240009A627B681B685B6803F48063002B26D03E
:105250007B689B6A23F4405343F480527B689A62D4
:105260001DE07B689B6A43F480127B689A627B68CE
:105270001B682F4A934204D07B681B682B4A9342D9
:105280000DD12B4B5B6803F48063002B07D07B6848
:105290009B6A23F4405343F480527B689A627B6894
:1052A0009B6A03F48053002B06D07B68DB6A23F0F3
:1052B00006027B68DA6202E07B680022DA627B68C1
:1052C000002283F824207B681B686FF002021A60BA
:1052D0007B681B689B6803F46023B3F5602F13D1D0
:1052E0007B681B68114A934205D1114B5B6803F43C
:1052F0007023002B08D17B681B689A687B681B6849
:1053000042F4A0029A600CE07B681B689A687B6894
:105310001B6842F480129A6003E07B68002283F8E5
:105320002420FB7B18461037BD4680BD0028014075
:105330000024014090B587B000AF78603960002349
:105340007B610023FB6000233B61FEF793F87861EB
:105350007B681B689B6803F48073002B0BD07B6811
:105360009B6A43F020027B689A627B68002283F884
:1053700024200123D3E07B681B685B6803F48073FF
:10538000002B31D17B681B68DB6A03F47003002BB0
:105390002AD121E03B68B3F1FF3F1DD03B68002BD1
:1053A00007D0FEF767F802467B69D31A3A689A423B
:1053B00012D27B681B681B6803F00203002B0BD121
:1053C0007B689B6A43F004027B689A627B680022D8
:1053D00083F824200323A2E07B681B681B6803F08A
:1053E0000203002BD6D070E04F4B1C680220FEF762
:1053F0001BFD0346B4FBF3F27B681B6819694B4B3A
:105400000B40002B18D17B681B68D968484B0B40B8
:10541000002B11D17B681B681969464B0B40002B90
:1054200008D17B681B68D968434B0B40002B01D126
:10543000142320E029231EE07B681B6819693D4B7B
:105440000B40002B06D17B681B68D9683A4B0B4098
:10545000002B0DD07B681B681969384B0B40002B63
:1054600008D17B681B68D968344B0B40002B01D1F5
:10547000542300E0FC2302FB03F33B6121E03B6883
:10548000B3F1FF3F1AD03B68002B07D0FDF7F2FFC6
:1054900002467B69D31A3A689A420FD2FB683A698E
:1054A0009A420BD97B689B6A43F004027B689A623C
:1054B0007B68002283F82420032330E0FB6801335B
:1054C000FB60FB683A699A42D9D87B681B686FF029
:1054D00012021A607B689B6A43F400727B689A62CE
:1054E0007B681B689B6803F46023B3F5602F15D1BC
:1054F0007B681B7B002B11D17B689B6A23F4807235
:105500007B689A627B689B6A03F48053002B05D109
:105510007B689B6A43F001027B689A62002318460D
:105520001C37BD4690BD00BF1400002024499224C2
:10553000244992009224491292244900499224005D
:1055400080B483B000AF78607B681B68DB6C184662
:105550000C37BD4680BC704780B485B000AF786022
:1055600039600023FB730023BB607B6893F8243011
:10557000012B01D10223DCE07B68012283F8242087
:105580003B685B68062B1CD87B681B68596B3B68C3
:105590005A6813469B001344053B1F2202FA03F38B
:1055A000DB4319403B6818683B685A6813469B0008
:1055B0001344053B00FA03F27B681B680A435A63F5
:1055C0003CE03B685B680C2B1CD87B681B68196B44
:1055D0003B685A6813469B001344233B1F2202FA80
:1055E00003F3DB4319403B6818683B685A6813466D
:1055F0009B001344233B00FA03F27B681B680A43B9
:105600001A631BE07B681B68D96A3B685A681346BB
:105610009B001344413B1F2202FA03F3DB43194072
:105620003B6818683B685A6813469B001344413B2B
:1056300000FA03F27B681B680A43DA623B681B6866
:10564000092B1CD97B681B68D9683B681A6813460C
:105650005B0013441E3B072202FA03F3DB431940AD
:105660003B6898683B681A6813465B0013441E3B0E
:1056700000FA03F27B681B680A43DA6019E07B6872
:105680001B6819693B681A6813465B0013440722BC
:1056900002FA03F3DB4319403B6898683B681A68D9
:1056A00013465B00134400FA03F27B681B680A434D
:1056B0001A613B681B68102B03D03B681B68112BD9
:1056C00032D17B681B681D4A934225D17B681B68D9
:1056D0009B6803F40003002B26D17B681B689A6843
:1056E0007B681B6842F400029A603B681B68102BC1
:1056F0001AD1134B1B68134AA2FB03239A0C1346BF
:105700009B0013445B00BB6002E0BB68013BBB60D5
:10571000BB68002BF9D107E07B689B6A43F020024D
:105720007B689A620123FB737B68002283F8242044
:10573000FB7B18461437BD4680BC704700240140EF
:105740001400002083DE1B4380B584B000AF786076
:105750000023FB600023BB607B681B689B6803F031
:105760000103012B40D07B681B689A687B681B682B
:1057700042F001029A601F4B1B681F4AA2FB0323E1
:105780009B0CBB6002E0BB68013BBB60BB68002BAD
:10579000F9D1FDF76FFEF8601FE0FDF76BFE0246E2
:1057A000FB68D31A022B18D97B681B689B6803F02F
:1057B0000103012B11D07B689B6A43F010027B68C8
:1057C0009A627B68DB6A43F001027B68DA627B687D
:1057D000002283F82420012307E07B681B689B6874
:1057E00003F00103012BD8D1002318461037BD4622
:1057F00080BD00BF1400002083DE1B4380B584B051
:1058000000AF78600023FB607B681B689B6803F037
:105810000103012B2ED17B681B689A687B681B688B
:1058200022F001029A60FDF725FEF8601BE0FDF70B
:1058300021FE0246FB68D31A022B14D97B681B6831
:105840009B6803F00103012B0DD17B689B6A43F039
:1058500010027B689A627B68DB6A43F001027B6816
:10586000DA62012307E07B681B689B6803F0010391
:10587000012BDCD0002318461037BD4680BD000048
:10588000002103E00B4B5B58435004310A480B4B9B
:1058900042189A42F6D30A4A02E0002342F8043B37
:1058A000084B9A42F9D3FEF740FE00F00FF8FBF7E1
:1058B000D7FD70470C62000800000020180000208F
:1058C00018000020A4050020FEE7000070B50026A7
:1058D0000C4D0D4C641BA410A64209D100F07EF8BB
:1058E00000260A4D0A4C641BA410A64205D170BDC7
:1058F00055F8043B98470136EEE755F8043B9847C6
:105900000136F2E70462000804620008046200083D
:1059100008620008931E222B10B50C4604D9002300
:105920001C460B70204610BD0A2A09D1002807DA50
:105930002D230B7001214042214400F00DF8F1E7C6
:105940000021F9E7FFF7E6BF03460244934200D186
:10595000704703F8011BF9E7F0B58BB005460B461D
:105960006E461D4C04F1200C3746206861680834EF
:1059700003C764453E46F7D1217920683971911EED
:10598000222938604FF0000104D919700B461846DF
:105990000BB0F0BD581E8446B5FBF2F702FB17565C
:1059A00028366E4416F8286C0C460CF8016F2E460B
:1059B000B2423D4601F10101EED900225A541919B3
:1059C000A51AAA42E3DA10F8015F0E7801320670D8
:1059D00001F80159F4E700BFDC610008F8B500BF29
:1059E000F8BC08BC9E467047F8B500BFF8BC08BCC0
:0459F0009E46704718
:1059F40031204F7574726F204D656E750000000084
:105A04002C0000003020566F6C746172000000009E
:105A140031204C69676172204D6F746F7200000011
:105A240032204465736C69676172204D6F746F72C4
:105A34000000000002030405060708090A0B0C0D08
:105A44000E0F101002030405060708090A0B0C0DBB
:105A54000E0F101000000000000000000000000005
:105A640000000000000000000010001000100010F2
:105A740000100010000000100000000000280028A2
:105A840000280000000000000000000000000000EA
:105A940000240024007C00240048007C00480048C6
:105AA4000000000000380054005000380014005476
:105AB400005400380010000000200054005800304A
:105AC4000028005400140008000000000010002802
